{
    "contractName": "CBDCcontract",
    "abi": [
        {
            "inputs": [],
            "stateMutability": "nonpayable",
            "type": "constructor"
        },
        {
            "anonymous": false,
            "inputs": [
                {
                    "indexed": true,
                    "internalType": "address",
                    "name": "owner",
                    "type": "address"
                },
                {
                    "indexed": true,
                    "internalType": "address",
                    "name": "spender",
                    "type": "address"
                },
                {
                    "indexed": false,
                    "internalType": "uint256",
                    "name": "value",
                    "type": "uint256"
                }
            ],
            "name": "Approval",
            "type": "event"
        },
        {
            "anonymous": false,
            "inputs": [
                {
                    "indexed": true,
                    "internalType": "address",
                    "name": "previousOwner",
                    "type": "address"
                },
                {
                    "indexed": true,
                    "internalType": "address",
                    "name": "newOwner",
                    "type": "address"
                }
            ],
            "name": "OwnershipTransferred",
            "type": "event"
        },
        {
            "anonymous": false,
            "inputs": [
                {
                    "indexed": true,
                    "internalType": "address",
                    "name": "from",
                    "type": "address"
                },
                {
                    "indexed": true,
                    "internalType": "address",
                    "name": "to",
                    "type": "address"
                },
                {
                    "indexed": false,
                    "internalType": "uint256",
                    "name": "value",
                    "type": "uint256"
                }
            ],
            "name": "Transfer",
            "type": "event"
        },
        {
            "inputs": [
                {
                    "internalType": "address",
                    "name": "owner",
                    "type": "address"
                },
                {
                    "internalType": "address",
                    "name": "spender",
                    "type": "address"
                }
            ],
            "name": "allowance",
            "outputs": [
                {
                    "internalType": "uint256",
                    "name": "",
                    "type": "uint256"
                }
            ],
            "stateMutability": "view",
            "type": "function"
        },
        {
            "inputs": [
                {
                    "internalType": "address",
                    "name": "spender",
                    "type": "address"
                },
                {
                    "internalType": "uint256",
                    "name": "amount",
                    "type": "uint256"
                }
            ],
            "name": "approve",
            "outputs": [
                {
                    "internalType": "bool",
                    "name": "",
                    "type": "bool"
                }
            ],
            "stateMutability": "nonpayable",
            "type": "function"
        },
        {
            "inputs": [
                {
                    "internalType": "address",
                    "name": "account",
                    "type": "address"
                }
            ],
            "name": "balanceOf",
            "outputs": [
                {
                    "internalType": "uint256",
                    "name": "",
                    "type": "uint256"
                }
            ],
            "stateMutability": "view",
            "type": "function"
        },
        {
            "inputs": [
                {
                    "internalType": "address",
                    "name": "account",
                    "type": "address"
                },
                {
                    "internalType": "uint256",
                    "name": "amount",
                    "type": "uint256"
                }
            ],
            "name": "burn",
            "outputs": [],
            "stateMutability": "nonpayable",
            "type": "function"
        },
        {
            "inputs": [],
            "name": "decimals",
            "outputs": [
                {
                    "internalType": "uint8",
                    "name": "",
                    "type": "uint8"
                }
            ],
            "stateMutability": "view",
            "type": "function"
        },
        {
            "inputs": [
                {
                    "internalType": "address",
                    "name": "spender",
                    "type": "address"
                },
                {
                    "internalType": "uint256",
                    "name": "subtractedValue",
                    "type": "uint256"
                }
            ],
            "name": "decreaseAllowance",
            "outputs": [
                {
                    "internalType": "bool",
                    "name": "",
                    "type": "bool"
                }
            ],
            "stateMutability": "nonpayable",
            "type": "function"
        },
        {
            "inputs": [
                {
                    "internalType": "uint256",
                    "name": "amount",
                    "type": "uint256"
                },
                {
                    "internalType": "string",
                    "name": "asset_ref_id",
                    "type": "string"
                }
            ],
            "name": "escrow",
            "outputs": [],
            "stateMutability": "nonpayable",
            "type": "function"
        },
        {
            "inputs": [
                {
                    "internalType": "address",
                    "name": "spender",
                    "type": "address"
                },
                {
                    "internalType": "uint256",
                    "name": "addedValue",
                    "type": "uint256"
                }
            ],
            "name": "increaseAllowance",
            "outputs": [
                {
                    "internalType": "bool",
                    "name": "",
                    "type": "bool"
                }
            ],
            "stateMutability": "nonpayable",
            "type": "function"
        },
        {
            "inputs": [
                {
                    "internalType": "address",
                    "name": "account",
                    "type": "address"
                },
                {
                    "internalType": "uint256",
                    "name": "amount",
                    "type": "uint256"
                }
            ],
            "name": "mint",
            "outputs": [],
            "stateMutability": "nonpayable",
            "type": "function"
        },
        {
            "inputs": [],
            "name": "name",
            "outputs": [
                {
                    "internalType": "string",
                    "name": "",
                    "type": "string"
                }
            ],
            "stateMutability": "view",
            "type": "function"
        },
        {
            "inputs": [],
            "name": "owner",
            "outputs": [
                {
                    "internalType": "address",
                    "name": "",
                    "type": "address"
                }
            ],
            "stateMutability": "view",
            "type": "function"
        },
        {
            "inputs": [],
            "name": "renounceOwnership",
            "outputs": [],
            "stateMutability": "nonpayable",
            "type": "function"
        },
        {
            "inputs": [
                {
                    "internalType": "address",
                    "name": "contract_address",
                    "type": "address"
                }
            ],
            "name": "setAssetReferenceContract",
            "outputs": [],
            "stateMutability": "nonpayable",
            "type": "function"
        },
        {
            "inputs": [],
            "name": "symbol",
            "outputs": [
                {
                    "internalType": "string",
                    "name": "",
                    "type": "string"
                }
            ],
            "stateMutability": "view",
            "type": "function"
        },
        {
            "inputs": [],
            "name": "totalSupply",
            "outputs": [
                {
                    "internalType": "uint256",
                    "name": "",
                    "type": "uint256"
                }
            ],
            "stateMutability": "view",
            "type": "function"
        },
        {
            "inputs": [
                {
                    "internalType": "address",
                    "name": "recipient",
                    "type": "address"
                },
                {
                    "internalType": "uint256",
                    "name": "amount",
                    "type": "uint256"
                }
            ],
            "name": "transfer",
            "outputs": [
                {
                    "internalType": "bool",
                    "name": "",
                    "type": "bool"
                }
            ],
            "stateMutability": "nonpayable",
            "type": "function"
        },
        {
            "inputs": [
                {
                    "internalType": "address",
                    "name": "sender",
                    "type": "address"
                },
                {
                    "internalType": "address",
                    "name": "recipient",
                    "type": "address"
                },
                {
                    "internalType": "uint256",
                    "name": "amount",
                    "type": "uint256"
                }
            ],
            "name": "transferFrom",
            "outputs": [
                {
                    "internalType": "bool",
                    "name": "",
                    "type": "bool"
                }
            ],
            "stateMutability": "nonpayable",
            "type": "function"
        },
        {
            "inputs": [
                {
                    "internalType": "address",
                    "name": "newOwner",
                    "type": "address"
                }
            ],
            "name": "transferOwnership",
            "outputs": [],
            "stateMutability": "nonpayable",
            "type": "function"
        }
    ],
    "bytecode": "6080604052600680546001600160a01b03199081167317f6ad8ef982297579c203069c1dbffe4348c372179091556007805490911690553480156200004357600080fd5b506040518060400160405280601a81526020017f43656e7472616c42616e6b4469676974616c43757272656e6379000000000000815250604051806040016040528060048152602001634342444360e01b815250620000b1620000ab620000d760201b60201c565b620000db565b6004620000bf8382620001d0565b506005620000ce8282620001d0565b5050506200029c565b3390565b600080546001600160a01b038381166001600160a01b0319831681178455604051919092169283917f8be0079c531659141344cd1fd0a4f28419497f9722a3daafe3b4186f6b6457e09190a35050565b634e487b7160e01b600052604160045260246000fd5b600181811c908216806200015657607f821691505b6020821081036200017757634e487b7160e01b600052602260045260246000fd5b50919050565b601f821115620001cb57600081815260208120601f850160051c81016020861015620001a65750805b601f850160051c820191505b81811015620001c757828155600101620001b2565b5050505b505050565b81516001600160401b03811115620001ec57620001ec6200012b565b6200020481620001fd845462000141565b846200017d565b602080601f8311600181146200023c5760008415620002235750858301515b600019600386901b1c1916600185901b178555620001c7565b600085815260208120601f198616915b828110156200026d578886015182559484019460019091019084016200024c565b50858210156200028c5787850151600019600388901b60f8161c191681555b5050505050600190811b01905550565b61107280620002ac6000396000f3fe608060405234801561001057600080fd5b50600436106101165760003560e01c8063715018a6116100a25780639dc29fac116100715780639dc29fac14610232578063a457c2d714610245578063a9059cbb14610258578063dd62ed3e1461026b578063f2fde38b146102a457600080fd5b8063715018a6146101f45780638d1a450d146101fc5780638da5cb5b1461020f57806395d89b411461022a57600080fd5b8063313ce567116100e9578063313ce56714610181578063395093511461019057806340c10f19146101a3578063417d11af146101b857806370a08231146101cb57600080fd5b806306fdde031461011b578063095ea7b31461013957806318160ddd1461015c57806323b872dd1461016e575b600080fd5b6101236102b7565b6040516101309190610d9f565b60405180910390f35b61014c610147366004610dee565b610349565b6040519015158152602001610130565b6003545b604051908152602001610130565b61014c61017c366004610e18565b610360565b60405160128152602001610130565b61014c61019e366004610dee565b61040f565b6101b66101b1366004610dee565b61044b565b005b6101b66101c6366004610e54565b610483565b6101606101d9366004610ed0565b6001600160a01b031660009081526001602052604090205490565b6101b661059a565b6101b661020a366004610ed0565b6105d0565b6000546040516001600160a01b039091168152602001610130565b61012361061c565b6101b6610240366004610dee565b61062b565b61014c610253366004610dee565b61065f565b61014c610266366004610dee565b6106f8565b610160610279366004610ef2565b6001600160a01b03918216600090815260026020908152604080832093909416825291909152205490565b6101b66102b2366004610ed0565b610705565b6060600480546102c690610f25565b80601f01602080910402602001604051908101604052809291908181526020018280546102f290610f25565b801561033f5780601f106103145761010080835404028352916020019161033f565b820191906000526020600020905b81548152906001019060200180831161032257829003601f168201915b5050505050905090565b60006103563384846107a0565b5060015b92915050565b600061036d8484846108c5565b6001600160a01b0384166000908152600260209081526040808320338452909152902054828110156103f75760405162461bcd60e51b815260206004820152602860248201527f45524332303a207472616e7366657220616d6f756e74206578636565647320616044820152676c6c6f77616e636560c01b60648201526084015b60405180910390fd5b61040485338584036107a0565b506001949350505050565b3360008181526002602090815260408083206001600160a01b03871684529091528120549091610356918590610446908690610f75565b6107a0565b6000546001600160a01b031633146104755760405162461bcd60e51b81526004016103ee90610f88565b61047f8282610a93565b5050565b61048b610b72565b6006546104a1906001600160a01b0316846106f8565b506007546040516000916001600160a01b0316906104cc908590859088903390600190602401610fbd565b60408051601f198184030181529181526020820180516001600160e01b03166303b24f6360e51b17905251610501919061100d565b6000604051808303816000865af19150503d806000811461053e576040519150601f19603f3d011682016040523d82523d6000602084013e610543565b606091505b50509050806105945760405162461bcd60e51b815260206004820181905260248201527f63726561746541737365745265666572656e63652063616c6c206661696c656460448201526064016103ee565b50505050565b6000546001600160a01b031633146105c45760405162461bcd60e51b81526004016103ee90610f88565b6105ce6000610be5565b565b6000546001600160a01b031633146105fa5760405162461bcd60e51b81526004016103ee90610f88565b600780546001600160a01b0319166001600160a01b0392909216919091179055565b6060600580546102c690610f25565b6000546001600160a01b031633146106555760405162461bcd60e51b81526004016103ee90610f88565b61047f8282610c35565b3360009081526002602090815260408083206001600160a01b0386168452909152812054828110156106e15760405162461bcd60e51b815260206004820152602560248201527f45524332303a2064656372656173656420616c6c6f77616e63652062656c6f77604482015264207a65726f60d81b60648201526084016103ee565b6106ee33858584036107a0565b5060019392505050565b60006103563384846108c5565b6000546001600160a01b0316331461072f5760405162461bcd60e51b81526004016103ee90610f88565b6001600160a01b0381166107945760405162461bcd60e51b815260206004820152602660248201527f4f776e61626c653a206e6577206f776e657220697320746865207a65726f206160448201526564647265737360d01b60648201526084016103ee565b61079d81610be5565b50565b6001600160a01b0383166108025760405162461bcd60e51b8152602060048201526024808201527f45524332303a20617070726f76652066726f6d20746865207a65726f206164646044820152637265737360e01b60648201526084016103ee565b6001600160a01b0382166108635760405162461bcd60e51b815260206004820152602260248201527f45524332303a20617070726f766520746f20746865207a65726f206164647265604482015261737360f01b60648201526084016103ee565b6001600160a01b0383811660008181526002602090815260408083209487168084529482529182902085905590518481527f8c5be1e5ebec7d5bd14f71427d1e84f3dd0314c0f7b2291e5b200ac8c7c3b92591015b60405180910390a3505050565b6001600160a01b0383166109295760405162461bcd60e51b815260206004820152602560248201527f45524332303a207472616e736665722066726f6d20746865207a65726f206164604482015264647265737360d81b60648201526084016103ee565b6001600160a01b03821661098b5760405162461bcd60e51b815260206004820152602360248201527f45524332303a207472616e7366657220746f20746865207a65726f206164647260448201526265737360e81b60648201526084016103ee565b6001600160a01b03831660009081526001602052604090205481811015610a035760405162461bcd60e51b815260206004820152602660248201527f45524332303a207472616e7366657220616d6f756e7420657863656564732062604482015265616c616e636560d01b60648201526084016103ee565b6001600160a01b03808516600090815260016020526040808220858503905591851681529081208054849290610a3a908490610f75565b92505081905550826001600160a01b0316846001600160a01b03167fddf252ad1be2c89b69c2b068fc378daa952ba7f163c4a11628f55a4df523b3ef84604051610a8691815260200190565b60405180910390a3610594565b6001600160a01b038216610ae95760405162461bcd60e51b815260206004820152601f60248201527f45524332303a206d696e7420746f20746865207a65726f20616464726573730060448201526064016103ee565b8060036000828254610afb9190610f75565b90915550506001600160a01b03821660009081526001602052604081208054839290610b28908490610f75565b90915550506040518181526001600160a01b038316906000907fddf252ad1be2c89b69c2b068fc378daa952ba7f163c4a11628f55a4df523b3ef9060200160405180910390a35050565b6007546001600160a01b03166105ce5760405162461bcd60e51b815260206004820152603260248201527f43424443636f6e74726163743a206173736574207265666572656e636520636f6044820152711b9d1c9858dd081b9bdd081919599a5b995960721b60648201526084016103ee565b600080546001600160a01b038381166001600160a01b0319831681178455604051919092169283917f8be0079c531659141344cd1fd0a4f28419497f9722a3daafe3b4186f6b6457e09190a35050565b6001600160a01b038216610c955760405162461bcd60e51b815260206004820152602160248201527f45524332303a206275726e2066726f6d20746865207a65726f206164647265736044820152607360f81b60648201526084016103ee565b6001600160a01b03821660009081526001602052604090205481811015610d095760405162461bcd60e51b815260206004820152602260248201527f45524332303a206275726e20616d6f756e7420657863656564732062616c616e604482015261636560f01b60648201526084016103ee565b6001600160a01b0383166000908152600160205260408120838303905560038054849290610d38908490611029565b90915550506040518281526000906001600160a01b038516907fddf252ad1be2c89b69c2b068fc378daa952ba7f163c4a11628f55a4df523b3ef906020016108b8565b60005b83811015610d96578181015183820152602001610d7e565b50506000910152565b6020815260008251806020840152610dbe816040850160208701610d7b565b601f01601f19169190910160400192915050565b80356001600160a01b0381168114610de957600080fd5b919050565b60008060408385031215610e0157600080fd5b610e0a83610dd2565b946020939093013593505050565b600080600060608486031215610e2d57600080fd5b610e3684610dd2565b9250610e4460208501610dd2565b9150604084013590509250925092565b600080600060408486031215610e6957600080fd5b83359250602084013567ffffffffffffffff80821115610e8857600080fd5b818601915086601f830112610e9c57600080fd5b813581811115610eab57600080fd5b876020828501011115610ebd57600080fd5b6020830194508093505050509250925092565b600060208284031215610ee257600080fd5b610eeb82610dd2565b9392505050565b60008060408385031215610f0557600080fd5b610f0e83610dd2565b9150610f1c60208401610dd2565b90509250929050565b600181811c90821680610f3957607f821691505b602082108103610f5957634e487b7160e01b600052602260045260246000fd5b50919050565b634e487b7160e01b600052601160045260246000fd5b8082018082111561035a5761035a610f5f565b6020808252818101527f4f776e61626c653a2063616c6c6572206973206e6f7420746865206f776e6572604082015260600190565b60808152846080820152848660a0830137600060a086830181019190915260208201949094526001600160a01b0392909216604083015215156060820152601f909201601f191690910101919050565b6000825161101f818460208701610d7b565b9190910192915050565b8181038181111561035a5761035a610f5f56fea2646970667358221220f76022987c18bc83bb019b92649eb20b7b68d0d79a66383ae1b54b0cc92c31ce64736f6c63430008100033",
    "sourcePath": "/home/andre_9a/cactus/examples/cactus-example-cbdc-bridging-fabric-evm/src/solidity/cbdc-erc-20/cbdc-erc-20.sol",
    "compiler": {
        "name": "solc",
        "version": "0.8.16+commit.07a7930e"
    },
    "functionHashes": {
        "allowance(address,address)": "dd62ed3e",
        "approve(address,uint256)": "095ea7b3",
        "balanceOf(address)": "70a08231",
        "burn(address,uint256)": "9dc29fac",
        "decimals()": "313ce567",
        "decreaseAllowance(address,uint256)": "a457c2d7",
        "escrow(uint256,string)": "417d11af",
        "increaseAllowance(address,uint256)": "39509351",
        "mint(address,uint256)": "40c10f19",
        "name()": "06fdde03",
        "owner()": "8da5cb5b",
        "renounceOwnership()": "715018a6",
        "setAssetReferenceContract(address)": "8d1a450d",
        "symbol()": "95d89b41",
        "totalSupply()": "18160ddd",
        "transfer(address,uint256)": "a9059cbb",
        "transferFrom(address,address,uint256)": "23b872dd",
        "transferOwnership(address)": "f2fde38b"
    },
    "gasEstimates": {
        "creation": {
            "codeDepositCost": "842000",
            "executionCost": "infinite",
            "totalCost": "infinite"
        },
        "external": {
            "allowance(address,address)": "infinite",
            "approve(address,uint256)": "24644",
            "balanceOf(address)": "2648",
            "burn(address,uint256)": "53130",
            "decimals()": "200",
            "decreaseAllowance(address,uint256)": "26933",
            "escrow(uint256,string)": "infinite",
            "increaseAllowance(address,uint256)": "infinite",
            "mint(address,uint256)": "infinite",
            "name()": "infinite",
            "owner()": "2368",
            "renounceOwnership()": "28137",
            "setAssetReferenceContract(address)": "26756",
            "symbol()": "infinite",
            "totalSupply()": "2349",
            "transfer(address,uint256)": "infinite",
            "transferFrom(address,address,uint256)": "infinite",
            "transferOwnership(address)": "28419"
        },
        "internal": {
            "_checkAssetRefContract()": "infinite"
        }
    }
}