{
    "contractName": "CBDCcontract",
    "abi": [
        {
            "inputs": [],
            "stateMutability": "nonpayable",
            "type": "constructor"
        },
        {
            "anonymous": false,
            "inputs": [
                {
                    "indexed": true,
                    "internalType": "address",
                    "name": "owner",
                    "type": "address"
                },
                {
                    "indexed": true,
                    "internalType": "address",
                    "name": "spender",
                    "type": "address"
                },
                {
                    "indexed": false,
                    "internalType": "uint256",
                    "name": "value",
                    "type": "uint256"
                }
            ],
            "name": "Approval",
            "type": "event"
        },
        {
            "anonymous": false,
            "inputs": [
                {
                    "indexed": true,
                    "internalType": "address",
                    "name": "previousOwner",
                    "type": "address"
                },
                {
                    "indexed": true,
                    "internalType": "address",
                    "name": "newOwner",
                    "type": "address"
                }
            ],
            "name": "OwnershipTransferred",
            "type": "event"
        },
        {
            "anonymous": false,
            "inputs": [
                {
                    "indexed": true,
                    "internalType": "address",
                    "name": "from",
                    "type": "address"
                },
                {
                    "indexed": true,
                    "internalType": "address",
                    "name": "to",
                    "type": "address"
                },
                {
                    "indexed": false,
                    "internalType": "uint256",
                    "name": "value",
                    "type": "uint256"
                }
            ],
            "name": "Transfer",
            "type": "event"
        },
        {
            "inputs": [
                {
                    "internalType": "address",
                    "name": "owner",
                    "type": "address"
                },
                {
                    "internalType": "address",
                    "name": "spender",
                    "type": "address"
                }
            ],
            "name": "allowance",
            "outputs": [
                {
                    "internalType": "uint256",
                    "name": "",
                    "type": "uint256"
                }
            ],
            "stateMutability": "view",
            "type": "function"
        },
        {
            "inputs": [
                {
                    "internalType": "address",
                    "name": "spender",
                    "type": "address"
                },
                {
                    "internalType": "uint256",
                    "name": "amount",
                    "type": "uint256"
                }
            ],
            "name": "approve",
            "outputs": [
                {
                    "internalType": "bool",
                    "name": "",
                    "type": "bool"
                }
            ],
            "stateMutability": "nonpayable",
            "type": "function"
        },
        {
            "inputs": [
                {
                    "internalType": "address",
                    "name": "account",
                    "type": "address"
                }
            ],
            "name": "balanceOf",
            "outputs": [
                {
                    "internalType": "uint256",
                    "name": "",
                    "type": "uint256"
                }
            ],
            "stateMutability": "view",
            "type": "function"
        },
        {
            "inputs": [
                {
                    "internalType": "uint256",
                    "name": "amount",
                    "type": "uint256"
                }
            ],
            "name": "burn",
            "outputs": [],
            "stateMutability": "nonpayable",
            "type": "function"
        },
        {
            "inputs": [],
            "name": "decimals",
            "outputs": [
                {
                    "internalType": "uint8",
                    "name": "",
                    "type": "uint8"
                }
            ],
            "stateMutability": "view",
            "type": "function"
        },
        {
            "inputs": [
                {
                    "internalType": "address",
                    "name": "spender",
                    "type": "address"
                },
                {
                    "internalType": "uint256",
                    "name": "subtractedValue",
                    "type": "uint256"
                }
            ],
            "name": "decreaseAllowance",
            "outputs": [
                {
                    "internalType": "bool",
                    "name": "",
                    "type": "bool"
                }
            ],
            "stateMutability": "nonpayable",
            "type": "function"
        },
        {
            "inputs": [
                {
                    "internalType": "uint256",
                    "name": "amount",
                    "type": "uint256"
                },
                {
                    "internalType": "string",
                    "name": "asset_ref_id",
                    "type": "string"
                }
            ],
            "name": "escrow",
            "outputs": [],
            "stateMutability": "nonpayable",
            "type": "function"
        },
        {
            "inputs": [
                {
                    "internalType": "address",
                    "name": "spender",
                    "type": "address"
                },
                {
                    "internalType": "uint256",
                    "name": "addedValue",
                    "type": "uint256"
                }
            ],
            "name": "increaseAllowance",
            "outputs": [
                {
                    "internalType": "bool",
                    "name": "",
                    "type": "bool"
                }
            ],
            "stateMutability": "nonpayable",
            "type": "function"
        },
        {
            "inputs": [
                {
                    "internalType": "address",
                    "name": "account",
                    "type": "address"
                },
                {
                    "internalType": "uint256",
                    "name": "amount",
                    "type": "uint256"
                }
            ],
            "name": "mint",
            "outputs": [],
            "stateMutability": "nonpayable",
            "type": "function"
        },
        {
            "inputs": [],
            "name": "name",
            "outputs": [
                {
                    "internalType": "string",
                    "name": "",
                    "type": "string"
                }
            ],
            "stateMutability": "view",
            "type": "function"
        },
        {
            "inputs": [],
            "name": "owner",
            "outputs": [
                {
                    "internalType": "address",
                    "name": "",
                    "type": "address"
                }
            ],
            "stateMutability": "view",
            "type": "function"
        },
        {
            "inputs": [],
            "name": "renounceOwnership",
            "outputs": [],
            "stateMutability": "nonpayable",
            "type": "function"
        },
        {
            "inputs": [
                {
                    "internalType": "address[]",
                    "name": "accounts",
                    "type": "address[]"
                }
            ],
            "name": "resetBalanceOf",
            "outputs": [],
            "stateMutability": "nonpayable",
            "type": "function"
        },
        {
            "inputs": [
                {
                    "internalType": "address",
                    "name": "contract_address",
                    "type": "address"
                }
            ],
            "name": "setAssetReferenceContract",
            "outputs": [],
            "stateMutability": "nonpayable",
            "type": "function"
        },
        {
            "inputs": [],
            "name": "symbol",
            "outputs": [
                {
                    "internalType": "string",
                    "name": "",
                    "type": "string"
                }
            ],
            "stateMutability": "view",
            "type": "function"
        },
        {
            "inputs": [],
            "name": "totalSupply",
            "outputs": [
                {
                    "internalType": "uint256",
                    "name": "",
                    "type": "uint256"
                }
            ],
            "stateMutability": "view",
            "type": "function"
        },
        {
            "inputs": [
                {
                    "internalType": "address",
                    "name": "recipient",
                    "type": "address"
                },
                {
                    "internalType": "uint256",
                    "name": "amount",
                    "type": "uint256"
                }
            ],
            "name": "transfer",
            "outputs": [
                {
                    "internalType": "bool",
                    "name": "",
                    "type": "bool"
                }
            ],
            "stateMutability": "nonpayable",
            "type": "function"
        },
        {
            "inputs": [
                {
                    "internalType": "address",
                    "name": "sender",
                    "type": "address"
                },
                {
                    "internalType": "address",
                    "name": "recipient",
                    "type": "address"
                },
                {
                    "internalType": "uint256",
                    "name": "amount",
                    "type": "uint256"
                }
            ],
            "name": "transferFrom",
            "outputs": [
                {
                    "internalType": "bool",
                    "name": "",
                    "type": "bool"
                }
            ],
            "stateMutability": "nonpayable",
            "type": "function"
        },
        {
            "inputs": [
                {
                    "internalType": "address",
                    "name": "newOwner",
                    "type": "address"
                }
            ],
            "name": "transferOwnership",
            "outputs": [],
            "stateMutability": "nonpayable",
            "type": "function"
        }
    ],
    "bytecode": "6080604052600680546001600160a01b031990811673f28d5769171bfbd2b3628d722e58129a6ae15022179091556007805490911690553480156200004357600080fd5b506040518060400160405280601a81526020017f43656e7472616c42616e6b4469676974616c43757272656e6379000000000000815250604051806040016040528060048152602001634342444360e01b815250620000b1620000ab620000d760201b60201c565b620000db565b6004620000bf8382620001d0565b506005620000ce8282620001d0565b5050506200029c565b3390565b600080546001600160a01b038381166001600160a01b0319831681178455604051919092169283917f8be0079c531659141344cd1fd0a4f28419497f9722a3daafe3b4186f6b6457e09190a35050565b634e487b7160e01b600052604160045260246000fd5b600181811c908216806200015657607f821691505b6020821081036200017757634e487b7160e01b600052602260045260246000fd5b50919050565b601f821115620001cb57600081815260208120601f850160051c81016020861015620001a65750805b601f850160051c820191505b81811015620001c757828155600101620001b2565b5050505b505050565b81516001600160401b03811115620001ec57620001ec6200012b565b6200020481620001fd845462000141565b846200017d565b602080601f8311600181146200023c5760008415620002235750858301515b600019600386901b1c1916600185901b178555620001c7565b600085815260208120601f198616915b828110156200026d578886015182559484019460019091019084016200024c565b50858210156200028c5787850151600019600388901b60f8161c191681555b5050505050600190811b01905550565b6111fd80620002ac6000396000f3fe608060405234801561001057600080fd5b50600436106101215760003560e01c806342966c68116100ad57806395d89b411161007157806395d89b411461025b578063a457c2d714610263578063a9059cbb14610276578063dd62ed3e14610289578063f2fde38b146102c257600080fd5b806342966c68146101e957806370a08231146101fc578063715018a6146102255780638d1a450d1461022d5780638da5cb5b1461024057600080fd5b8063313ce567116100f4578063313ce5671461018c5780633459feb21461019b57806339509351146101b057806340c10f19146101c3578063417d11af146101d657600080fd5b806306fdde0314610126578063095ea7b31461014457806318160ddd1461016757806323b872dd14610179575b600080fd5b61012e6102d5565b60405161013b9190610e6d565b60405180910390f35b610157610152366004610ebc565b610367565b604051901515815260200161013b565b6003545b60405190815260200161013b565b610157610187366004610ee6565b61037e565b6040516012815260200161013b565b6101ae6101a9366004610f22565b61042d565b005b6101576101be366004610ebc565b6104d7565b6101ae6101d1366004610ebc565b610513565b6101ae6101e4366004610f97565b61054b565b6101ae6101f7366004611013565b61065c565b61016b61020a36600461102c565b6001600160a01b031660009081526001602052604090205490565b6101ae61069f565b6101ae61023b36600461102c565b6106d5565b6000546040516001600160a01b03909116815260200161013b565b61012e610721565b610157610271366004610ebc565b610730565b610157610284366004610ebc565b6107c9565b61016b61029736600461104e565b6001600160a01b03918216600090815260026020908152604080832093909416825291909152205490565b6101ae6102d036600461102c565b6107d6565b6060600480546102e490611081565b80601f016020809104026020016040519081016040528092919081815260200182805461031090611081565b801561035d5780601f106103325761010080835404028352916020019161035d565b820191906000526020600020905b81548152906001019060200180831161034057829003601f168201915b5050505050905090565b600061037433848461086e565b5060015b92915050565b600061038b848484610993565b6001600160a01b0384166000908152600260209081526040808320338452909152902054828110156104155760405162461bcd60e51b815260206004820152602860248201527f45524332303a207472616e7366657220616d6f756e74206578636565647320616044820152676c6c6f77616e636560c01b60648201526084015b60405180910390fd5b610422853385840361086e565b506001949350505050565b6000546001600160a01b031633146104575760405162461bcd60e51b815260040161040c906110bb565b6000805b828110156104d15761048d848483818110610478576104786110f0565b905060200201602081019061020a919061102c565b91506104bf8484838181106104a4576104a46110f0565b90506020020160208101906104b9919061102c565b83610b61565b806104c98161111c565b91505061045b565b50505050565b3360008181526002602090815260408083206001600160a01b0387168452909152812054909161037491859061050e908690611135565b61086e565b6000546001600160a01b0316331461053d5760405162461bcd60e51b815260040161040c906110bb565b6105478282610ca7565b5050565b610553610d86565b600654610569906001600160a01b0316846107c9565b506007546040516000916001600160a01b031690610594908590859088903390600190602401611148565b60408051601f198184030181529181526020820180516001600160e01b03166303b24f6360e51b179052516105c99190611198565b6000604051808303816000865af19150503d8060008114610606576040519150601f19603f3d011682016040523d82523d6000602084013e61060b565b606091505b50509050806104d15760405162461bcd60e51b815260206004820181905260248201527f63726561746541737365745265666572656e63652063616c6c206661696c6564604482015260640161040c565b6000546001600160a01b031633146106865760405162461bcd60e51b815260040161040c906110bb565b60065461069c906001600160a01b031682610b61565b50565b6000546001600160a01b031633146106c95760405162461bcd60e51b815260040161040c906110bb565b6106d36000610df9565b565b6000546001600160a01b031633146106ff5760405162461bcd60e51b815260040161040c906110bb565b600780546001600160a01b0319166001600160a01b0392909216919091179055565b6060600580546102e490611081565b3360009081526002602090815260408083206001600160a01b0386168452909152812054828110156107b25760405162461bcd60e51b815260206004820152602560248201527f45524332303a2064656372656173656420616c6c6f77616e63652062656c6f77604482015264207a65726f60d81b606482015260840161040c565b6107bf338585840361086e565b5060019392505050565b6000610374338484610993565b6000546001600160a01b031633146108005760405162461bcd60e51b815260040161040c906110bb565b6001600160a01b0381166108655760405162461bcd60e51b815260206004820152602660248201527f4f776e61626c653a206e6577206f776e657220697320746865207a65726f206160448201526564647265737360d01b606482015260840161040c565b61069c81610df9565b6001600160a01b0383166108d05760405162461bcd60e51b8152602060048201526024808201527f45524332303a20617070726f76652066726f6d20746865207a65726f206164646044820152637265737360e01b606482015260840161040c565b6001600160a01b0382166109315760405162461bcd60e51b815260206004820152602260248201527f45524332303a20617070726f766520746f20746865207a65726f206164647265604482015261737360f01b606482015260840161040c565b6001600160a01b0383811660008181526002602090815260408083209487168084529482529182902085905590518481527f8c5be1e5ebec7d5bd14f71427d1e84f3dd0314c0f7b2291e5b200ac8c7c3b92591015b60405180910390a3505050565b6001600160a01b0383166109f75760405162461bcd60e51b815260206004820152602560248201527f45524332303a207472616e736665722066726f6d20746865207a65726f206164604482015264647265737360d81b606482015260840161040c565b6001600160a01b038216610a595760405162461bcd60e51b815260206004820152602360248201527f45524332303a207472616e7366657220746f20746865207a65726f206164647260448201526265737360e81b606482015260840161040c565b6001600160a01b03831660009081526001602052604090205481811015610ad15760405162461bcd60e51b815260206004820152602660248201527f45524332303a207472616e7366657220616d6f756e7420657863656564732062604482015265616c616e636560d01b606482015260840161040c565b6001600160a01b03808516600090815260016020526040808220858503905591851681529081208054849290610b08908490611135565b92505081905550826001600160a01b0316846001600160a01b03167fddf252ad1be2c89b69c2b068fc378daa952ba7f163c4a11628f55a4df523b3ef84604051610b5491815260200190565b60405180910390a36104d1565b6001600160a01b038216610bc15760405162461bcd60e51b815260206004820152602160248201527f45524332303a206275726e2066726f6d20746865207a65726f206164647265736044820152607360f81b606482015260840161040c565b6001600160a01b03821660009081526001602052604090205481811015610c355760405162461bcd60e51b815260206004820152602260248201527f45524332303a206275726e20616d6f756e7420657863656564732062616c616e604482015261636560f01b606482015260840161040c565b6001600160a01b0383166000908152600160205260408120838303905560038054849290610c649084906111b4565b90915550506040518281526000906001600160a01b038516907fddf252ad1be2c89b69c2b068fc378daa952ba7f163c4a11628f55a4df523b3ef90602001610986565b6001600160a01b038216610cfd5760405162461bcd60e51b815260206004820152601f60248201527f45524332303a206d696e7420746f20746865207a65726f206164647265737300604482015260640161040c565b8060036000828254610d0f9190611135565b90915550506001600160a01b03821660009081526001602052604081208054839290610d3c908490611135565b90915550506040518181526001600160a01b038316906000907fddf252ad1be2c89b69c2b068fc378daa952ba7f163c4a11628f55a4df523b3ef9060200160405180910390a35050565b6007546001600160a01b03166106d35760405162461bcd60e51b815260206004820152603260248201527f43424443636f6e74726163743a206173736574207265666572656e636520636f6044820152711b9d1c9858dd081b9bdd081919599a5b995960721b606482015260840161040c565b600080546001600160a01b038381166001600160a01b0319831681178455604051919092169283917f8be0079c531659141344cd1fd0a4f28419497f9722a3daafe3b4186f6b6457e09190a35050565b60005b83811015610e64578181015183820152602001610e4c565b50506000910152565b6020815260008251806020840152610e8c816040850160208701610e49565b601f01601f19169190910160400192915050565b80356001600160a01b0381168114610eb757600080fd5b919050565b60008060408385031215610ecf57600080fd5b610ed883610ea0565b946020939093013593505050565b600080600060608486031215610efb57600080fd5b610f0484610ea0565b9250610f1260208501610ea0565b9150604084013590509250925092565b60008060208385031215610f3557600080fd5b823567ffffffffffffffff80821115610f4d57600080fd5b818501915085601f830112610f6157600080fd5b813581811115610f7057600080fd5b8660208260051b8501011115610f8557600080fd5b60209290920196919550909350505050565b600080600060408486031215610fac57600080fd5b83359250602084013567ffffffffffffffff80821115610fcb57600080fd5b818601915086601f830112610fdf57600080fd5b813581811115610fee57600080fd5b87602082850101111561100057600080fd5b6020830194508093505050509250925092565b60006020828403121561102557600080fd5b5035919050565b60006020828403121561103e57600080fd5b61104782610ea0565b9392505050565b6000806040838503121561106157600080fd5b61106a83610ea0565b915061107860208401610ea0565b90509250929050565b600181811c9082168061109557607f821691505b6020821081036110b557634e487b7160e01b600052602260045260246000fd5b50919050565b6020808252818101527f4f776e61626c653a2063616c6c6572206973206e6f7420746865206f776e6572604082015260600190565b634e487b7160e01b600052603260045260246000fd5b634e487b7160e01b600052601160045260246000fd5b60006001820161112e5761112e611106565b5060010190565b8082018082111561037857610378611106565b60808152846080820152848660a0830137600060a086830181019190915260208201949094526001600160a01b0392909216604083015215156060820152601f909201601f191690910101919050565b600082516111aa818460208701610e49565b9190910192915050565b818103818111156103785761037861110656fea2646970667358221220b8267d15f4c2dad3797c044fed9cc4ab0d0c33d848432a49b120a2d55ea4aefa64736f6c63430008100033",
    "sourcePath": "/home/andre_9a/cactus/examples/cactus-example-cbdc-bridging-fabric-evm/src/solidity/cbdc-erc-20/cbdc-erc-20.sol",
    "compiler": {
        "name": "solc",
        "version": "0.8.16+commit.07a7930e"
    },
    "functionHashes": {
        "allowance(address,address)": "dd62ed3e",
        "approve(address,uint256)": "095ea7b3",
        "balanceOf(address)": "70a08231",
        "burn(uint256)": "42966c68",
        "decimals()": "313ce567",
        "decreaseAllowance(address,uint256)": "a457c2d7",
        "escrow(uint256,string)": "417d11af",
        "increaseAllowance(address,uint256)": "39509351",
        "mint(address,uint256)": "40c10f19",
        "name()": "06fdde03",
        "owner()": "8da5cb5b",
        "renounceOwnership()": "715018a6",
        "resetBalanceOf(address[])": "3459feb2",
        "setAssetReferenceContract(address)": "8d1a450d",
        "symbol()": "95d89b41",
        "totalSupply()": "18160ddd",
        "transfer(address,uint256)": "a9059cbb",
        "transferFrom(address,address,uint256)": "23b872dd",
        "transferOwnership(address)": "f2fde38b"
    },
    "gasEstimates": {
        "creation": {
            "codeDepositCost": "921000",
            "executionCost": "infinite",
            "totalCost": "infinite"
        },
        "external": {
            "allowance(address,address)": "infinite",
            "approve(address,uint256)": "24644",
            "balanceOf(address)": "2582",
            "burn(uint256)": "55148",
            "decimals()": "200",
            "decreaseAllowance(address,uint256)": "26933",
            "escrow(uint256,string)": "infinite",
            "increaseAllowance(address,uint256)": "infinite",
            "mint(address,uint256)": "infinite",
            "name()": "infinite",
            "owner()": "2412",
            "renounceOwnership()": "28181",
            "resetBalanceOf(address[])": "infinite",
            "setAssetReferenceContract(address)": "26800",
            "symbol()": "infinite",
            "totalSupply()": "2349",
            "transfer(address,uint256)": "infinite",
            "transferFrom(address,address,uint256)": "infinite",
            "transferOwnership(address)": "28419"
        },
        "internal": {
            "_checkAssetRefContract()": "infinite"
        }
    }
}