{
    "contractName": "LockAsset",
    "abi": [
        {
            "inputs": [
                {
                    "internalType": "string",
                    "name": "id",
                    "type": "string"
                },
                {
                    "internalType": "uint256",
                    "name": "size",
                    "type": "uint256"
                }
            ],
            "name": "createAsset",
            "outputs": [
                {
                    "components": [
                        {
                            "internalType": "address",
                            "name": "creator",
                            "type": "address"
                        },
                        {
                            "internalType": "bool",
                            "name": "isLock",
                            "type": "bool"
                        },
                        {
                            "internalType": "uint256",
                            "name": "size",
                            "type": "uint256"
                        }
                    ],
                    "internalType": "struct Asset",
                    "name": "",
                    "type": "tuple"
                }
            ],
            "stateMutability": "view",
            "type": "function"
        },
        {
            "inputs": [
                {
                    "internalType": "string",
                    "name": "id",
                    "type": "string"
                }
            ],
            "name": "deleteAsset",
            "outputs": [],
            "stateMutability": "nonpayable",
            "type": "function"
        },
        {
            "inputs": [
                {
                    "internalType": "string",
                    "name": "id",
                    "type": "string"
                }
            ],
            "name": "getAsset",
            "outputs": [
                {
                    "components": [
                        {
                            "internalType": "address",
                            "name": "creator",
                            "type": "address"
                        },
                        {
                            "internalType": "bool",
                            "name": "isLock",
                            "type": "bool"
                        },
                        {
                            "internalType": "uint256",
                            "name": "size",
                            "type": "uint256"
                        }
                    ],
                    "internalType": "struct Asset",
                    "name": "",
                    "type": "tuple"
                }
            ],
            "stateMutability": "view",
            "type": "function"
        },
        {
            "inputs": [
                {
                    "internalType": "string",
                    "name": "id",
                    "type": "string"
                }
            ],
            "name": "isPresent",
            "outputs": [
                {
                    "internalType": "bool",
                    "name": "",
                    "type": "bool"
                }
            ],
            "stateMutability": "view",
            "type": "function"
        },
        {
            "inputs": [
                {
                    "internalType": "string",
                    "name": "id",
                    "type": "string"
                }
            ],
            "name": "lockAsset",
            "outputs": [],
            "stateMutability": "nonpayable",
            "type": "function"
        },
        {
            "inputs": [
                {
                    "internalType": "string",
                    "name": "id",
                    "type": "string"
                }
            ],
            "name": "unLockAsset",
            "outputs": [],
            "stateMutability": "nonpayable",
            "type": "function"
        }
    ],
    "bytecode": "608060405234801561001057600080fd5b506104fc806100206000396000f3fe608060405234801561001057600080fd5b50600436106100625760003560e01c80635e82d0a614610067578063bc5482751461007c578063cd5286d0146100a4578063db9cc410146100e4578063def60e0d146100f7578063e24aa37c1461010a575b600080fd5b61007a610075366004610428565b61011d565b005b61008f61008a366004610428565b610192565b60405190151581526020015b60405180910390f35b6100b76100b2366004610428565b6101c1565b6040805182516001600160a01b03168152602080840151151590820152918101519082015260600161009b565b6100b76100f236600461046a565b610239565b61007a610105366004610428565b6102bf565b61007a610118366004610428565b610305565b6000600183836040516101319291906104b6565b9081526040519081900360200190205460ff1690508061015057600080fd5b6001600084846040516101649291906104b6565b9081526040519081900360200190208054911515600160a01b0260ff60a01b19909216919091179055505050565b6000600183836040516101a69291906104b6565b9081526040519081900360200190205460ff16905092915050565b6040805160608101825260008082526020820181905291810191909152600083836040516101f09291906104b6565b908152604080516020928190038301812060608201835280546001600160a01b0381168352600160a01b900460ff16151593820193909352600190920154908201529392505050565b60408051606081018252600080825260208201819052918101919091526000821161026357600080fd5b600084846040516102759291906104b6565b908152604080516020928190038301812060608201835280546001600160a01b0381168352600160a01b900460ff1615159382019390935260019092015490820152949350505050565b6000600183836040516102d39291906104b6565b9081526040519081900360200190205460ff169050806102f257600080fd5b60008084846040516101649291906104b6565b6000600183836040516103199291906104b6565b9081526040519081900360200190205460ff1690508061033857600080fd5b600080848460405161034b9291906104b6565b9081526040519081900360200190205460ff600160a01b9091041690508061037257600080fd5b600084846040516103849291906104b6565b90815260405190819003602001812080546001600160a81b031916815560006001918201819055916103b990879087906104b6565b908152604051908190036020019020805491151560ff1990921691909117905550505050565b60008083601f8401126103f157600080fd5b50813567ffffffffffffffff81111561040957600080fd5b60208301915083602082850101111561042157600080fd5b9250929050565b6000806020838503121561043b57600080fd5b823567ffffffffffffffff81111561045257600080fd5b61045e858286016103df565b90969095509350505050565b60008060006040848603121561047f57600080fd5b833567ffffffffffffffff81111561049657600080fd5b6104a2868287016103df565b909790965060209590950135949350505050565b818382376000910190815291905056fea26469706673582212205d1c768cd6a9b840ee548714d46fdadbe86d027b661f03b26012df1c71fc60bb64736f6c634300080d0033",
    "sourcePath": "/home/andre_9a/cactus/packages/cactus-plugin-odap-hermes/src/test/solidity/lock-asset-contract/lock-asset.sol",
    "compiler": {
        "name": "solc",
        "version": "0.8.13+commit.abaa5c0e"
    },
    "functionHashes": {
        "createAsset(string,uint256)": "db9cc410",
        "deleteAsset(string)": "e24aa37c",
        "getAsset(string)": "cd5286d0",
        "isPresent(string)": "bc548275",
        "lockAsset(string)": "5e82d0a6",
        "unLockAsset(string)": "def60e0d"
    },
    "gasEstimates": {
        "creation": {
            "codeDepositCost": "255200",
            "executionCost": "294",
            "totalCost": "255494"
        },
        "external": {
            "createAsset(string,uint256)": "infinite",
            "deleteAsset(string)": "infinite",
            "getAsset(string)": "infinite",
            "isPresent(string)": "infinite",
            "lockAsset(string)": "infinite",
            "unLockAsset(string)": "infinite"
        }
    }
}