{
    "contractName": "AssetReferenceContract",
    "abi": [
        {
            "inputs": [
                {
                    "internalType": "address",
                    "name": "account",
                    "type": "address"
                }
            ],
            "stateMutability": "nonpayable",
            "type": "constructor"
        },
        {
            "anonymous": false,
            "inputs": [
                {
                    "indexed": true,
                    "internalType": "address",
                    "name": "newOwner",
                    "type": "address"
                }
            ],
            "name": "OwnershipAdded",
            "type": "event"
        },
        {
            "anonymous": false,
            "inputs": [
                {
                    "indexed": true,
                    "internalType": "address",
                    "name": "previousOwner",
                    "type": "address"
                }
            ],
            "name": "OwnershipRemoved",
            "type": "event"
        },
        {
            "inputs": [
                {
                    "internalType": "address",
                    "name": "newOwner",
                    "type": "address"
                }
            ],
            "name": "addOwner",
            "outputs": [],
            "stateMutability": "nonpayable",
            "type": "function"
        },
        {
            "inputs": [
                {
                    "internalType": "uint256",
                    "name": "amount",
                    "type": "uint256"
                }
            ],
            "name": "burn",
            "outputs": [],
            "stateMutability": "nonpayable",
            "type": "function"
        },
        {
            "inputs": [
                {
                    "internalType": "string",
                    "name": "id",
                    "type": "string"
                },
                {
                    "internalType": "uint256",
                    "name": "amount",
                    "type": "uint256"
                },
                {
                    "internalType": "address",
                    "name": "recipient",
                    "type": "address"
                },
                {
                    "internalType": "bool",
                    "name": "bridgeBack",
                    "type": "bool"
                }
            ],
            "name": "createAssetReference",
            "outputs": [],
            "stateMutability": "nonpayable",
            "type": "function"
        },
        {
            "inputs": [
                {
                    "internalType": "string",
                    "name": "id",
                    "type": "string"
                }
            ],
            "name": "deleteAssetReference",
            "outputs": [],
            "stateMutability": "nonpayable",
            "type": "function"
        },
        {
            "inputs": [
                {
                    "internalType": "string",
                    "name": "id",
                    "type": "string"
                }
            ],
            "name": "getAssetReference",
            "outputs": [
                {
                    "components": [
                        {
                            "internalType": "string",
                            "name": "id",
                            "type": "string"
                        },
                        {
                            "internalType": "bool",
                            "name": "isLocked",
                            "type": "bool"
                        },
                        {
                            "internalType": "uint256",
                            "name": "amount",
                            "type": "uint256"
                        },
                        {
                            "internalType": "address",
                            "name": "recipient",
                            "type": "address"
                        }
                    ],
                    "internalType": "struct AssetReference",
                    "name": "",
                    "type": "tuple"
                }
            ],
            "stateMutability": "view",
            "type": "function"
        },
        {
            "inputs": [
                {
                    "internalType": "string",
                    "name": "id",
                    "type": "string"
                }
            ],
            "name": "isAssetLocked",
            "outputs": [
                {
                    "internalType": "bool",
                    "name": "",
                    "type": "bool"
                }
            ],
            "stateMutability": "view",
            "type": "function"
        },
        {
            "inputs": [
                {
                    "internalType": "string",
                    "name": "id",
                    "type": "string"
                }
            ],
            "name": "isPresent",
            "outputs": [
                {
                    "internalType": "bool",
                    "name": "",
                    "type": "bool"
                }
            ],
            "stateMutability": "view",
            "type": "function"
        },
        {
            "inputs": [
                {
                    "internalType": "string",
                    "name": "id",
                    "type": "string"
                }
            ],
            "name": "lockAssetReference",
            "outputs": [],
            "stateMutability": "nonpayable",
            "type": "function"
        },
        {
            "inputs": [
                {
                    "internalType": "string",
                    "name": "ID1",
                    "type": "string"
                },
                {
                    "internalType": "string",
                    "name": "ID2",
                    "type": "string"
                }
            ],
            "name": "mergeAssetReferences",
            "outputs": [],
            "stateMutability": "nonpayable",
            "type": "function"
        },
        {
            "inputs": [
                {
                    "internalType": "address",
                    "name": "account",
                    "type": "address"
                },
                {
                    "internalType": "uint256",
                    "name": "amount",
                    "type": "uint256"
                }
            ],
            "name": "mint",
            "outputs": [],
            "stateMutability": "nonpayable",
            "type": "function"
        },
        {
            "inputs": [],
            "name": "owners",
            "outputs": [
                {
                    "internalType": "address[]",
                    "name": "",
                    "type": "address[]"
                }
            ],
            "stateMutability": "view",
            "type": "function"
        },
        {
            "inputs": [
                {
                    "internalType": "address",
                    "name": "oldOwner",
                    "type": "address"
                }
            ],
            "name": "removeOwner",
            "outputs": [],
            "stateMutability": "nonpayable",
            "type": "function"
        },
        {
            "inputs": [
                {
                    "internalType": "string",
                    "name": "oldID",
                    "type": "string"
                },
                {
                    "internalType": "uint256",
                    "name": "amount",
                    "type": "uint256"
                },
                {
                    "internalType": "string",
                    "name": "newID",
                    "type": "string"
                }
            ],
            "name": "splitAssetReference",
            "outputs": [],
            "stateMutability": "nonpayable",
            "type": "function"
        },
        {
            "inputs": [
                {
                    "internalType": "string",
                    "name": "id",
                    "type": "string"
                }
            ],
            "name": "unLockAssetReference",
            "outputs": [],
            "stateMutability": "nonpayable",
            "type": "function"
        }
    ],
    "bytecode": "608060405234801561001057600080fd5b5060405161178138038061178183398101604081905261002f916100d3565b6100383361005d565b600180546001600160a01b0319166001600160a01b0392909216919091179055610103565b600080546001810182558180527f290decd9548b62a8d60345a988386fc84ba6bc95484008f6362f93160ef3e5630180546001600160a01b0319166001600160a01b03841690811790915560405190917fb4cd6c6140e1db788f68710738b06ef4d0df6a884a06a088433a4c2f5e036e7c91a250565b6000602082840312156100e557600080fd5b81516001600160a01b03811681146100fc57600080fd5b9392505050565b61166f806101126000396000f3fe608060405234801561001057600080fd5b50600436106100ea5760003560e01c80637065cb481161008c578063ade3222b11610066578063ade3222b146101c4578063affe39c1146101d7578063b1fa2580146101ec578063bc5482751461020c57600080fd5b80637065cb481461018b5780637649ec601461019e5780638ef45293146101b157600080fd5b806341283284116100c8578063412832841461013f57806342966c681461015257806354c2ec531461016557806363773a6c1461017857600080fd5b8063173825d9146100ef5780631ae4eb681461010457806340c10f191461012c575b600080fd5b6101026100fd366004611085565b61021f565b005b6101176101123660046110f0565b61029d565b60405190151581526020015b60405180910390f35b61010261013a366004611132565b6102d0565b61010261014d36600461115c565b6103bd565b6101026101603660046111d6565b6105a3565b6101026101733660046111ef565b610687565b6101026101863660046110f0565b610831565b610102610199366004611085565b6108ff565b6101026101ac36600461125b565b610975565b6101026101bf3660046110f0565b610aa0565b6101026101d23660046110f0565b610ae2565b6101df610c1f565b60405161012391906112d2565b6101ff6101fa3660046110f0565b610c81565b6040516101239190611343565b61011761021a3660046110f0565b610d94565b610227610dc3565b6001600160a01b0381166102915760405162461bcd60e51b815260206004820152602660248201527f4f776e61626c653a206f6c64206f776e657220697320746865207a65726f206160448201526564647265737360d01b60648201526084015b60405180910390fd5b61029a81610e72565b50565b6000600283836040516102b19291906113ab565b9081526040519081900360200190206001015460ff1690505b92915050565b6102d8610dc3565b6001546040516001600160a01b03848116602483015260448201849052600092169060640160408051601f198184030181529181526020820180516001600160e01b03166340c10f1960e01b1790525161033291906113bb565b6000604051808303816000865af19150503d806000811461036f576040519150601f19603f3d011682016040523d82523d6000602084013e610374565b606091505b50509050806103b85760405162461bcd60e51b815260206004820152601060248201526f1b5a5b9d0818d85b1b0819985a5b195960821b6044820152606401610288565b505050565b6103c5610dc3565b6103cf8585610d94565b6103eb5760405162461bcd60e51b8152600401610288906113d7565b6103f5858561029d565b156104125760405162461bcd60e51b815260040161028890611419565b8181600284846040516104269291906113ab565b908152604051908190036020019020916104419190836114f8565b5082600286866040516104559291906113ab565b90815260200160405180910390206002015461047191906115ce565b600283836040516104839291906113ab565b9081526020016040518091039020600201819055506000600283836040516104ac9291906113ab565b908152604051908190036020018120600101805492151560ff19909316929092179091556002906104e090879087906113ab565b908152604051908190036020018120600301546001600160a01b03169060029061050d90859085906113ab565b908152602001604051809103902060030160006101000a8154816001600160a01b0302191690836001600160a01b031602179055506001600383836040516105569291906113ab565b908152604051908190036020018120805492151560ff1990931692909217909155839060029061058990889088906113ab565b908152604051908190036020019020600201555050505050565b6105ab610dc3565b600154604051602481018390526000916001600160a01b03169060440160408051601f198184030181529181526020820180516001600160e01b0316630852cd8d60e31b179052516105fd91906113bb565b6000604051808303816000865af19150503d806000811461063a576040519150601f19603f3d011682016040523d82523d6000602084013e61063f565b606091505b50509050806106835760405162461bcd60e51b815260206004820152601060248201526f189d5c9b8818d85b1b0819985a5b195960821b6044820152606401610288565b5050565b61068f610dc3565b6106998484610d94565b6106b55760405162461bcd60e51b8152600401610288906113d7565b6106bf848461029d565b156106dc5760405162461bcd60e51b815260040161028890611419565b6106e68282610d94565b6107025760405162461bcd60e51b8152600401610288906113d7565b61070c828261029d565b156107295760405162461bcd60e51b815260040161028890611419565b6002828260405161073b9291906113ab565b9081526020016040518091039020600201546002858560405161075f9291906113ab565b90815260200160405180910390206002015461077b91906115e1565b6002858560405161078d9291906113ab565b908152602001604051809103902060020181905550600282826040516107b49291906113ab565b90815260405190819003602001902060006107cf828261101b565b5060018101805460ff19169055600060028201819055600391820180546001600160a01b031916905560405190919061080b90859085906113ab565b908152604051908190036020019020805491151560ff1990921691909117905550505050565b610839610dc3565b6108438282610d94565b61085f5760405162461bcd60e51b8152600401610288906113d7565b610869828261029d565b156108c45760405162461bcd60e51b815260206004820152602560248201527f546865206173736574207265666572656e636520697320616c7265616479206c6044820152641bd8dad95960da1b6064820152608401610288565b6001600283836040516108d89291906113ab565b908152604051908190036020019020600101805491151560ff199092169190911790555050565b610907610dc3565b6001600160a01b03811661096c5760405162461bcd60e51b815260206004820152602660248201527f4f776e61626c653a206e6577206f776e657220697320746865207a65726f206160448201526564647265737360d01b6064820152608401610288565b61029a81610fa5565b61097d610dc3565b8015610a8f578484600287876040516109979291906113ab565b908152604051908190036020019020916109b29190836114f8565b5082600286866040516109c69291906113ab565b9081526020016040518091039020600201819055506000600286866040516109ef9291906113ab565b908152604051908190036020018120600101805492151560ff19909316929092179091558290600290610a2590889088906113ab565b908152602001604051809103902060030160006101000a8154816001600160a01b0302191690836001600160a01b03160217905550600160038686604051610a6e9291906113ab565b908152604051908190036020019020805491151560ff199092169190911790555b610a9982846102d0565b5050505050565b610aa8610dc3565b610ab28282610d94565b610ace5760405162461bcd60e51b8152600401610288906113d7565b6000600283836040516108d89291906113ab565b610aea610dc3565b610af48282610d94565b610b105760405162461bcd60e51b8152600401610288906113d7565b610b1a828261029d565b610b665760405162461bcd60e51b815260206004820152601d60248201527f546865206173736574207265666572656e6365206973206c6f636b65640000006044820152606401610288565b610b9260028383604051610b7b9291906113ab565b9081526020016040518091039020600201546105a3565b60028282604051610ba49291906113ab565b9081526040519081900360200190206000610bbf828261101b565b5060018101805460ff19169055600060028201819055600391820180546001600160a01b0319169055604051909190610bfb90859085906113ab565b908152604051908190036020019020805491151560ff199092169190911790555050565b60606000805480602002602001604051908101604052809291908181526020018280548015610c7757602002820191906000526020600020905b81546001600160a01b03168152600190910190602001808311610c59575b5050505050905090565b604080516080810182526060808252600060208301819052828401819052908201529051600290610cb590859085906113ab565b9081526020016040518091039020604051806080016040529081600082018054610cde90611470565b80601f0160208091040260200160405190810160405280929190818152602001828054610d0a90611470565b8015610d575780601f10610d2c57610100808354040283529160200191610d57565b820191906000526020600020905b815481529060010190602001808311610d3a57829003601f168201915b5050509183525050600182015460ff1615156020820152600282015460408201526003909101546001600160a01b03166060909101529392505050565b600060038383604051610da89291906113ab565b9081526040519081900360200190205460ff16905092915050565b6000805b600054811015610e1f57336001600160a01b031660008281548110610dee57610dee6115f4565b6000918252602090912001546001600160a01b031603610e0d57600191505b80610e178161160a565b915050610dc7565b5060018115151461029a5760405162461bcd60e51b815260206004820152601f60248201527f4f776e61626c653a2063616c6c6572206973206e6f7420616e206f776e6572006044820152606401610288565b60005b600054811015610f6d57816001600160a01b031660008281548110610e9c57610e9c6115f4565b6000918252602090912001546001600160a01b031603610f5b5760008054610ec6906001906115ce565b81548110610ed657610ed66115f4565b600091825260208220015481546001600160a01b03909116919083908110610f0057610f006115f4565b6000918252602082200180546001600160a01b0319166001600160a01b039390931692909217909155805480610f3857610f38611623565b600082815260209020810160001990810180546001600160a01b03191690550190555b80610f658161160a565b915050610e75565b506040516001600160a01b038216907f86d076ecf250a6d90a67a7c75317f44709d5001395ecf1df6d9dad5278f1e68190600090a250565b600080546001810182558180527f290decd9548b62a8d60345a988386fc84ba6bc95484008f6362f93160ef3e5630180546001600160a01b0319166001600160a01b03841690811790915560405190917fb4cd6c6140e1db788f68710738b06ef4d0df6a884a06a088433a4c2f5e036e7c91a250565b50805461102790611470565b6000825580601f10611037575050565b601f01602090049060005260206000209081019061029a91905b808211156110655760008155600101611051565b5090565b80356001600160a01b038116811461108057600080fd5b919050565b60006020828403121561109757600080fd5b6110a082611069565b9392505050565b60008083601f8401126110b957600080fd5b50813567ffffffffffffffff8111156110d157600080fd5b6020830191508360208285010111156110e957600080fd5b9250929050565b6000806020838503121561110357600080fd5b823567ffffffffffffffff81111561111a57600080fd5b611126858286016110a7565b90969095509350505050565b6000806040838503121561114557600080fd5b61114e83611069565b946020939093013593505050565b60008060008060006060868803121561117457600080fd5b853567ffffffffffffffff8082111561118c57600080fd5b61119889838a016110a7565b90975095506020880135945060408801359150808211156111b857600080fd5b506111c5888289016110a7565b969995985093965092949392505050565b6000602082840312156111e857600080fd5b5035919050565b6000806000806040858703121561120557600080fd5b843567ffffffffffffffff8082111561121d57600080fd5b611229888389016110a7565b9096509450602087013591508082111561124257600080fd5b5061124f878288016110a7565b95989497509550505050565b60008060008060006080868803121561127357600080fd5b853567ffffffffffffffff81111561128a57600080fd5b611296888289016110a7565b909650945050602086013592506112af60408701611069565b9150606086013580151581146112c457600080fd5b809150509295509295909350565b6020808252825182820181905260009190848201906040850190845b818110156113135783516001600160a01b0316835292840192918401916001016112ee565b50909695505050505050565b60005b8381101561133a578181015183820152602001611322565b50506000910152565b60208152600082516080602084015280518060a085015261136b8160c086016020850161131f565b60208501511515604085810191909152850151606080860191909152909401516001600160a01b03166080840152505060c0601f909201601f1916010190565b8183823760009101908152919050565b600082516113cd81846020870161131f565b9190910192915050565b60208082526022908201527f546865206173736574207265666572656e636520646f6573206e6f74206578696040820152611cdd60f21b606082015260800190565b60208082526021908201527f546865206173736574207265666572656e6365206973206e6f74206c6f636b656040820152601960fa1b606082015260800190565b634e487b7160e01b600052604160045260246000fd5b600181811c9082168061148457607f821691505b6020821081036114a457634e487b7160e01b600052602260045260246000fd5b50919050565b601f8211156103b857600081815260208120601f850160051c810160208610156114d15750805b601f850160051c820191505b818110156114f0578281556001016114dd565b505050505050565b67ffffffffffffffff8311156115105761151061145a565b6115248361151e8354611470565b836114aa565b6000601f84116001811461155857600085156115405750838201355b600019600387901b1c1916600186901b178355610a99565b600083815260209020601f19861690835b828110156115895786850135825560209485019460019092019101611569565b50868210156115a65760001960f88860031b161c19848701351681555b505060018560011b0183555050505050565b634e487b7160e01b600052601160045260246000fd5b818103818111156102ca576102ca6115b8565b808201808211156102ca576102ca6115b8565b634e487b7160e01b600052603260045260246000fd5b60006001820161161c5761161c6115b8565b5060010190565b634e487b7160e01b600052603160045260246000fdfea26469706673582212204c490063ee02c647a01920e50bc2e6b625765a2d71170f7d036f46b2fbee5cee64736f6c63430008100033",
    "sourcePath": "/home/andre_9a/cactus/examples/cactus-example-cbdc-bridging-fabric-evm/src/solidity/asset-reference-contract/asset-reference-contract.sol",
    "compiler": {
        "name": "solc",
        "version": "0.8.16+commit.07a7930e"
    },
    "functionHashes": {
        "addOwner(address)": "7065cb48",
        "burn(uint256)": "42966c68",
        "createAssetReference(string,uint256,address,bool)": "7649ec60",
        "deleteAssetReference(string)": "ade3222b",
        "getAssetReference(string)": "b1fa2580",
        "isAssetLocked(string)": "1ae4eb68",
        "isPresent(string)": "bc548275",
        "lockAssetReference(string)": "63773a6c",
        "mergeAssetReferences(string,string)": "54c2ec53",
        "mint(address,uint256)": "40c10f19",
        "owners()": "affe39c1",
        "removeOwner(address)": "173825d9",
        "splitAssetReference(string,uint256,string)": "41283284",
        "unLockAssetReference(string)": "8ef45293"
    },
    "gasEstimates": {
        "creation": {
            "codeDepositCost": "1148600",
            "executionCost": "infinite",
            "totalCost": "infinite"
        },
        "external": {
            "addOwner(address)": "infinite",
            "burn(uint256)": "infinite",
            "createAssetReference(string,uint256,address,bool)": "infinite",
            "deleteAssetReference(string)": "infinite",
            "getAssetReference(string)": "infinite",
            "isAssetLocked(string)": "infinite",
            "isPresent(string)": "infinite",
            "lockAssetReference(string)": "infinite",
            "mergeAssetReferences(string,string)": "infinite",
            "mint(address,uint256)": "infinite",
            "owners()": "infinite",
            "removeOwner(address)": "infinite",
            "splitAssetReference(string,uint256,string)": "infinite",
            "unLockAssetReference(string)": "infinite"
        }
    }
}