{
    "contractName": "AssetReferenceContract",
    "abi": [
        {
            "inputs": [
                {
                    "internalType": "address",
                    "name": "account",
                    "type": "address"
                }
            ],
            "stateMutability": "nonpayable",
            "type": "constructor"
        },
        {
            "anonymous": false,
            "inputs": [
                {
                    "indexed": true,
                    "internalType": "address",
                    "name": "newOwner",
                    "type": "address"
                }
            ],
            "name": "OwnershipAdded",
            "type": "event"
        },
        {
            "anonymous": false,
            "inputs": [
                {
                    "indexed": true,
                    "internalType": "address",
                    "name": "previousOwner",
                    "type": "address"
                }
            ],
            "name": "OwnershipRemoved",
            "type": "event"
        },
        {
            "inputs": [
                {
                    "internalType": "address",
                    "name": "newOwner",
                    "type": "address"
                }
            ],
            "name": "addOwner",
            "outputs": [],
            "stateMutability": "nonpayable",
            "type": "function"
        },
        {
            "inputs": [
                {
                    "internalType": "uint256",
                    "name": "amount",
                    "type": "uint256"
                }
            ],
            "name": "burn",
            "outputs": [],
            "stateMutability": "nonpayable",
            "type": "function"
        },
        {
            "inputs": [
                {
                    "internalType": "string",
                    "name": "id",
                    "type": "string"
                },
                {
                    "internalType": "uint256",
                    "name": "amount",
                    "type": "uint256"
                },
                {
                    "internalType": "address",
                    "name": "user",
                    "type": "address"
                }
            ],
            "name": "checkValidBridgeBack",
            "outputs": [
                {
                    "internalType": "bool",
                    "name": "",
                    "type": "bool"
                }
            ],
            "stateMutability": "view",
            "type": "function"
        },
        {
            "inputs": [
                {
                    "internalType": "string",
                    "name": "id",
                    "type": "string"
                },
                {
                    "internalType": "uint256",
                    "name": "amount",
                    "type": "uint256"
                },
                {
                    "internalType": "address",
                    "name": "recipient",
                    "type": "address"
                }
            ],
            "name": "createAssetReference",
            "outputs": [],
            "stateMutability": "nonpayable",
            "type": "function"
        },
        {
            "inputs": [
                {
                    "internalType": "string",
                    "name": "id",
                    "type": "string"
                }
            ],
            "name": "deleteAssetReference",
            "outputs": [],
            "stateMutability": "nonpayable",
            "type": "function"
        },
        {
            "inputs": [
                {
                    "internalType": "string",
                    "name": "id",
                    "type": "string"
                }
            ],
            "name": "getAssetReference",
            "outputs": [
                {
                    "components": [
                        {
                            "internalType": "string",
                            "name": "id",
                            "type": "string"
                        },
                        {
                            "internalType": "bool",
                            "name": "isLocked",
                            "type": "bool"
                        },
                        {
                            "internalType": "uint256",
                            "name": "amount",
                            "type": "uint256"
                        },
                        {
                            "internalType": "address",
                            "name": "recipient",
                            "type": "address"
                        }
                    ],
                    "internalType": "struct AssetReference",
                    "name": "",
                    "type": "tuple"
                }
            ],
            "stateMutability": "view",
            "type": "function"
        },
        {
            "inputs": [
                {
                    "internalType": "string",
                    "name": "id",
                    "type": "string"
                }
            ],
            "name": "isAssetLocked",
            "outputs": [
                {
                    "internalType": "bool",
                    "name": "",
                    "type": "bool"
                }
            ],
            "stateMutability": "view",
            "type": "function"
        },
        {
            "inputs": [
                {
                    "internalType": "string",
                    "name": "id",
                    "type": "string"
                }
            ],
            "name": "isPresent",
            "outputs": [
                {
                    "internalType": "bool",
                    "name": "",
                    "type": "bool"
                }
            ],
            "stateMutability": "view",
            "type": "function"
        },
        {
            "inputs": [
                {
                    "internalType": "string",
                    "name": "id",
                    "type": "string"
                }
            ],
            "name": "lockAssetReference",
            "outputs": [],
            "stateMutability": "nonpayable",
            "type": "function"
        },
        {
            "inputs": [
                {
                    "internalType": "address",
                    "name": "account",
                    "type": "address"
                },
                {
                    "internalType": "uint256",
                    "name": "amount",
                    "type": "uint256"
                }
            ],
            "name": "mint",
            "outputs": [],
            "stateMutability": "nonpayable",
            "type": "function"
        },
        {
            "inputs": [],
            "name": "owners",
            "outputs": [
                {
                    "internalType": "address[]",
                    "name": "",
                    "type": "address[]"
                }
            ],
            "stateMutability": "view",
            "type": "function"
        },
        {
            "inputs": [
                {
                    "internalType": "address",
                    "name": "oldOwner",
                    "type": "address"
                }
            ],
            "name": "removeOwner",
            "outputs": [],
            "stateMutability": "nonpayable",
            "type": "function"
        },
        {
            "inputs": [
                {
                    "internalType": "string",
                    "name": "id",
                    "type": "string"
                }
            ],
            "name": "unLockAssetReference",
            "outputs": [],
            "stateMutability": "nonpayable",
            "type": "function"
        }
    ],
    "bytecode": "608060405234801561001057600080fd5b506040516112f73803806112f783398101604081905261002f916100d3565b6100383361005d565b600180546001600160a01b0319166001600160a01b0392909216919091179055610103565b600080546001810182558180527f290decd9548b62a8d60345a988386fc84ba6bc95484008f6362f93160ef3e5630180546001600160a01b0319166001600160a01b03841690811790915560405190917fb4cd6c6140e1db788f68710738b06ef4d0df6a884a06a088433a4c2f5e036e7c91a250565b6000602082840312156100e557600080fd5b81516001600160a01b03811681146100fc57600080fd5b9392505050565b6111e5806101126000396000f3fe608060405234801561001057600080fd5b50600436106100cf5760003560e01c80637065cb481161008c578063ade3222b11610066578063ade3222b14610196578063affe39c1146101a9578063b1fa2580146101be578063bc548275146101de57600080fd5b80637065cb481461015d5780638ef45293146101705780639ca272991461018357600080fd5b8063173825d9146100d45780631ae4eb68146100e957806340c10f191461011157806342966c681461012457806363773a6c14610137578063663bcc921461014a575b600080fd5b6100e76100e2366004610d4e565b6101f1565b005b6100fc6100f7366004610db9565b61026f565b60405190151581526020015b60405180910390f35b6100e761011f366004610dfb565b6102a2565b6100e7610132366004610e25565b61038f565b6100e7610145366004610db9565b610473565b6100e7610158366004610e3e565b610541565b6100e761016b366004610d4e565b61065a565b6100e761017e366004610db9565b6106d0565b6100fc610191366004610e3e565b610712565b6100e76101a4366004610db9565b6107ab565b6101b16108e8565b6040516101089190610e9b565b6101d16101cc366004610db9565b61094a565b6040516101089190610f0c565b6100fc6101ec366004610db9565b610a5d565b6101f9610a8c565b6001600160a01b0381166102635760405162461bcd60e51b815260206004820152602660248201527f4f776e61626c653a206f6c64206f776e657220697320746865207a65726f206160448201526564647265737360d01b60648201526084015b60405180910390fd5b61026c81610b3b565b50565b600060028383604051610283929190610f74565b9081526040519081900360200190206001015460ff1690505b92915050565b6102aa610a8c565b6001546040516001600160a01b03848116602483015260448201849052600092169060640160408051601f198184030181529181526020820180516001600160e01b03166340c10f1960e01b179052516103049190610f84565b6000604051808303816000865af19150503d8060008114610341576040519150601f19603f3d011682016040523d82523d6000602084013e610346565b606091505b505090508061038a5760405162461bcd60e51b815260206004820152601060248201526f1b5a5b9d0818d85b1b0819985a5b195960821b604482015260640161025a565b505050565b610397610a8c565b600154604051602481018390526000916001600160a01b03169060440160408051601f198184030181529181526020820180516001600160e01b0316630852cd8d60e31b179052516103e99190610f84565b6000604051808303816000865af19150503d8060008114610426576040519150601f19603f3d011682016040523d82523d6000602084013e61042b565b606091505b505090508061046f5760405162461bcd60e51b815260206004820152601060248201526f189d5c9b8818d85b1b0819985a5b195960821b604482015260640161025a565b5050565b61047b610a8c565b6104858282610a5d565b6104a15760405162461bcd60e51b815260040161025a90610fa0565b6104ab828261026f565b156105065760405162461bcd60e51b815260206004820152602560248201527f546865206173736574207265666572656e636520697320616c7265616479206c6044820152641bd8dad95960da1b606482015260840161025a565b60016002838360405161051a929190610f74565b908152604051908190036020019020600101805491151560ff199092169190911790555050565b610549610a8c565b83836002868660405161055d929190610f74565b90815260405190819003602001902091610578919083611080565b50816002858560405161058c929190610f74565b9081526020016040518091039020600201819055506000600285856040516105b5929190610f74565b908152604051908190036020018120600101805492151560ff199093169290921790915581906002906105eb9087908790610f74565b908152602001604051809103902060030160006101000a8154816001600160a01b0302191690836001600160a01b03160217905550600160038585604051610634929190610f74565b908152604051908190036020019020805491151560ff1990921691909117905550505050565b610662610a8c565b6001600160a01b0381166106c75760405162461bcd60e51b815260206004820152602660248201527f4f776e61626c653a206e6577206f776e657220697320746865207a65726f206160448201526564647265737360d01b606482015260840161025a565b61026c81610c6e565b6106d8610a8c565b6106e28282610a5d565b6106fe5760405162461bcd60e51b815260040161025a90610fa0565b60006002838360405161051a929190610f74565b600061071e8585610a5d565b61073a5760405162461bcd60e51b815260040161025a90610fa0565b826002868660405161074d929190610f74565b908152602001604051809103902060020154101580156107a25750816001600160a01b031660028686604051610784929190610f74565b908152604051908190036020019020600301546001600160a01b0316145b95945050505050565b6107b3610a8c565b6107bd8282610a5d565b6107d95760405162461bcd60e51b815260040161025a90610fa0565b6107e3828261026f565b61082f5760405162461bcd60e51b815260206004820152601d60248201527f546865206173736574207265666572656e6365206973206c6f636b6564000000604482015260640161025a565b61085b60028383604051610844929190610f74565b90815260200160405180910390206002015461038f565b6002828260405161086d929190610f74565b90815260405190819003602001902060006108888282610ce4565b5060018101805460ff19169055600060028201819055600391820180546001600160a01b03191690556040519091906108c49085908590610f74565b908152604051908190036020019020805491151560ff199092169190911790555050565b6060600080548060200260200160405190810160405280929190818152602001828054801561094057602002820191906000526020600020905b81546001600160a01b03168152600190910190602001808311610922575b5050505050905090565b60408051608081018252606080825260006020830181905282840181905290820152905160029061097e9085908590610f74565b90815260200160405180910390206040518060800160405290816000820180546109a790610ff8565b80601f01602080910402602001604051908101604052809291908181526020018280546109d390610ff8565b8015610a205780601f106109f557610100808354040283529160200191610a20565b820191906000526020600020905b815481529060010190602001808311610a0357829003601f168201915b5050509183525050600182015460ff1615156020820152600282015460408201526003909101546001600160a01b03166060909101529392505050565b600060038383604051610a71929190610f74565b9081526040519081900360200190205460ff16905092915050565b6000805b600054811015610ae857336001600160a01b031660008281548110610ab757610ab7611141565b6000918252602090912001546001600160a01b031603610ad657600191505b80610ae08161116d565b915050610a90565b5060018115151461026c5760405162461bcd60e51b815260206004820152601f60248201527f4f776e61626c653a2063616c6c6572206973206e6f7420616e206f776e657200604482015260640161025a565b60005b600054811015610c3657816001600160a01b031660008281548110610b6557610b65611141565b6000918252602090912001546001600160a01b031603610c245760008054610b8f90600190611186565b81548110610b9f57610b9f611141565b600091825260208220015481546001600160a01b03909116919083908110610bc957610bc9611141565b6000918252602082200180546001600160a01b0319166001600160a01b039390931692909217909155805480610c0157610c01611199565b600082815260209020810160001990810180546001600160a01b03191690550190555b80610c2e8161116d565b915050610b3e565b506040516001600160a01b038216907f86d076ecf250a6d90a67a7c75317f44709d5001395ecf1df6d9dad5278f1e68190600090a250565b600080546001810182558180527f290decd9548b62a8d60345a988386fc84ba6bc95484008f6362f93160ef3e5630180546001600160a01b0319166001600160a01b03841690811790915560405190917fb4cd6c6140e1db788f68710738b06ef4d0df6a884a06a088433a4c2f5e036e7c91a250565b508054610cf090610ff8565b6000825580601f10610d00575050565b601f01602090049060005260206000209081019061026c91905b80821115610d2e5760008155600101610d1a565b5090565b80356001600160a01b0381168114610d4957600080fd5b919050565b600060208284031215610d6057600080fd5b610d6982610d32565b9392505050565b60008083601f840112610d8257600080fd5b50813567ffffffffffffffff811115610d9a57600080fd5b602083019150836020828501011115610db257600080fd5b9250929050565b60008060208385031215610dcc57600080fd5b823567ffffffffffffffff811115610de357600080fd5b610def85828601610d70565b90969095509350505050565b60008060408385031215610e0e57600080fd5b610e1783610d32565b946020939093013593505050565b600060208284031215610e3757600080fd5b5035919050565b60008060008060608587031215610e5457600080fd5b843567ffffffffffffffff811115610e6b57600080fd5b610e7787828801610d70565b90955093505060208501359150610e9060408601610d32565b905092959194509250565b6020808252825182820181905260009190848201906040850190845b81811015610edc5783516001600160a01b031683529284019291840191600101610eb7565b50909695505050505050565b60005b83811015610f03578181015183820152602001610eeb565b50506000910152565b60208152600082516080602084015280518060a0850152610f348160c0860160208501610ee8565b60208501511515604085810191909152850151606080860191909152909401516001600160a01b03166080840152505060c0601f909201601f1916010190565b8183823760009101908152919050565b60008251610f96818460208701610ee8565b9190910192915050565b60208082526022908201527f546865206173736574207265666572656e636520646f6573206e6f74206578696040820152611cdd60f21b606082015260800190565b634e487b7160e01b600052604160045260246000fd5b600181811c9082168061100c57607f821691505b60208210810361102c57634e487b7160e01b600052602260045260246000fd5b50919050565b601f82111561038a57600081815260208120601f850160051c810160208610156110595750805b601f850160051c820191505b8181101561107857828155600101611065565b505050505050565b67ffffffffffffffff83111561109857611098610fe2565b6110ac836110a68354610ff8565b83611032565b6000601f8411600181146110e057600085156110c85750838201355b600019600387901b1c1916600186901b17835561113a565b600083815260209020601f19861690835b8281101561111157868501358255602094850194600190920191016110f1565b508682101561112e5760001960f88860031b161c19848701351681555b505060018560011b0183555b5050505050565b634e487b7160e01b600052603260045260246000fd5b634e487b7160e01b600052601160045260246000fd5b60006001820161117f5761117f611157565b5060010190565b8181038181111561029c5761029c611157565b634e487b7160e01b600052603160045260246000fdfea26469706673582212202aa73e6b4ec0f07286502126e97a34d2f8ece619c1177a559fe87cfb2f4a1d3764736f6c63430008100033",
    "sourcePath": "/home/andre_9a/cactus/examples/cactus-example-cbdc-bridging-fabric-evm/src/solidity/asset-reference-contract/asset-reference-contract.sol",
    "compiler": {
        "name": "solc",
        "version": "0.8.16+commit.07a7930e"
    },
    "functionHashes": {
        "addOwner(address)": "7065cb48",
        "burn(uint256)": "42966c68",
        "checkValidBridgeBack(string,uint256,address)": "9ca27299",
        "createAssetReference(string,uint256,address)": "663bcc92",
        "deleteAssetReference(string)": "ade3222b",
        "getAssetReference(string)": "b1fa2580",
        "isAssetLocked(string)": "1ae4eb68",
        "isPresent(string)": "bc548275",
        "lockAssetReference(string)": "63773a6c",
        "mint(address,uint256)": "40c10f19",
        "owners()": "affe39c1",
        "removeOwner(address)": "173825d9",
        "unLockAssetReference(string)": "8ef45293"
    },
    "gasEstimates": {
        "creation": {
            "codeDepositCost": "916200",
            "executionCost": "infinite",
            "totalCost": "infinite"
        },
        "external": {
            "addOwner(address)": "infinite",
            "burn(uint256)": "infinite",
            "checkValidBridgeBack(string,uint256,address)": "infinite",
            "createAssetReference(string,uint256,address)": "infinite",
            "deleteAssetReference(string)": "infinite",
            "getAssetReference(string)": "infinite",
            "isAssetLocked(string)": "infinite",
            "isPresent(string)": "infinite",
            "lockAssetReference(string)": "infinite",
            "mint(address,uint256)": "infinite",
            "owners()": "infinite",
            "removeOwner(address)": "infinite",
            "unLockAssetReference(string)": "infinite"
        }
    }
}