{
    "contractName": "AssetReferenceContract",
    "abi": [
        {
            "inputs": [
                {
                    "internalType": "address",
                    "name": "account",
                    "type": "address"
                }
            ],
            "stateMutability": "nonpayable",
            "type": "constructor"
        },
        {
            "anonymous": false,
            "inputs": [
                {
                    "indexed": true,
                    "internalType": "address",
                    "name": "newOwner",
                    "type": "address"
                }
            ],
            "name": "OwnershipAdded",
            "type": "event"
        },
        {
            "anonymous": false,
            "inputs": [
                {
                    "indexed": true,
                    "internalType": "address",
                    "name": "previousOwner",
                    "type": "address"
                }
            ],
            "name": "OwnershipRemoved",
            "type": "event"
        },
        {
            "inputs": [
                {
                    "internalType": "address",
                    "name": "newOwner",
                    "type": "address"
                }
            ],
            "name": "addOwner",
            "outputs": [],
            "stateMutability": "nonpayable",
            "type": "function"
        },
        {
            "inputs": [
                {
                    "internalType": "uint256",
                    "name": "amount",
                    "type": "uint256"
                }
            ],
            "name": "burn",
            "outputs": [],
            "stateMutability": "nonpayable",
            "type": "function"
        },
        {
            "inputs": [
                {
                    "internalType": "string",
                    "name": "id",
                    "type": "string"
                },
                {
                    "internalType": "uint256",
                    "name": "amount",
                    "type": "uint256"
                },
                {
                    "internalType": "address",
                    "name": "recipient",
                    "type": "address"
                }
            ],
            "name": "createAssetReference",
            "outputs": [],
            "stateMutability": "nonpayable",
            "type": "function"
        },
        {
            "inputs": [
                {
                    "internalType": "string",
                    "name": "id",
                    "type": "string"
                }
            ],
            "name": "deleteAssetReference",
            "outputs": [],
            "stateMutability": "nonpayable",
            "type": "function"
        },
        {
            "inputs": [
                {
                    "internalType": "string",
                    "name": "id",
                    "type": "string"
                }
            ],
            "name": "getAssetReference",
            "outputs": [
                {
                    "components": [
                        {
                            "internalType": "string",
                            "name": "id",
                            "type": "string"
                        },
                        {
                            "internalType": "bool",
                            "name": "isLocked",
                            "type": "bool"
                        },
                        {
                            "internalType": "uint256",
                            "name": "amount",
                            "type": "uint256"
                        },
                        {
                            "internalType": "address",
                            "name": "recipient",
                            "type": "address"
                        }
                    ],
                    "internalType": "struct AssetReference",
                    "name": "",
                    "type": "tuple"
                }
            ],
            "stateMutability": "view",
            "type": "function"
        },
        {
            "inputs": [
                {
                    "internalType": "string",
                    "name": "id",
                    "type": "string"
                }
            ],
            "name": "isAssetLocked",
            "outputs": [
                {
                    "internalType": "bool",
                    "name": "",
                    "type": "bool"
                }
            ],
            "stateMutability": "view",
            "type": "function"
        },
        {
            "inputs": [
                {
                    "internalType": "string",
                    "name": "id",
                    "type": "string"
                }
            ],
            "name": "isPresent",
            "outputs": [
                {
                    "internalType": "bool",
                    "name": "",
                    "type": "bool"
                }
            ],
            "stateMutability": "view",
            "type": "function"
        },
        {
            "inputs": [
                {
                    "internalType": "string",
                    "name": "id",
                    "type": "string"
                }
            ],
            "name": "lockAssetReference",
            "outputs": [],
            "stateMutability": "nonpayable",
            "type": "function"
        },
        {
            "inputs": [
                {
                    "internalType": "address",
                    "name": "account",
                    "type": "address"
                },
                {
                    "internalType": "uint256",
                    "name": "amount",
                    "type": "uint256"
                }
            ],
            "name": "mint",
            "outputs": [],
            "stateMutability": "nonpayable",
            "type": "function"
        },
        {
            "inputs": [],
            "name": "owners",
            "outputs": [
                {
                    "internalType": "address[]",
                    "name": "",
                    "type": "address[]"
                }
            ],
            "stateMutability": "view",
            "type": "function"
        },
        {
            "inputs": [
                {
                    "internalType": "address",
                    "name": "oldOwner",
                    "type": "address"
                }
            ],
            "name": "removeOwner",
            "outputs": [],
            "stateMutability": "nonpayable",
            "type": "function"
        },
        {
            "inputs": [
                {
                    "internalType": "string",
                    "name": "id",
                    "type": "string"
                }
            ],
            "name": "unLockAssetReference",
            "outputs": [],
            "stateMutability": "nonpayable",
            "type": "function"
        }
    ],
    "bytecode": "608060405234801561001057600080fd5b5060405161123038038061123083398101604081905261002f916100d3565b6100383361005d565b600180546001600160a01b0319166001600160a01b0392909216919091179055610103565b600080546001810182558180527f290decd9548b62a8d60345a988386fc84ba6bc95484008f6362f93160ef3e5630180546001600160a01b0319166001600160a01b03841690811790915560405190917fb4cd6c6140e1db788f68710738b06ef4d0df6a884a06a088433a4c2f5e036e7c91a250565b6000602082840312156100e557600080fd5b81516001600160a01b03811681146100fc57600080fd5b9392505050565b61111e806101126000396000f3fe608060405234801561001057600080fd5b50600436106100b45760003560e01c80637065cb48116100715780637065cb48146101425780638ef4529314610155578063ade3222b14610168578063affe39c11461017b578063b1fa258014610190578063bc548275146101b057600080fd5b8063173825d9146100b95780631ae4eb68146100ce57806340c10f19146100f657806342966c681461010957806363773a6c1461011c578063663bcc921461012f575b600080fd5b6100cc6100c7366004610c87565b6101c3565b005b6100e16100dc366004610cf2565b610241565b60405190151581526020015b60405180910390f35b6100cc610104366004610d34565b610274565b6100cc610117366004610d5e565b610361565b6100cc61012a366004610cf2565b610445565b6100cc61013d366004610d77565b610513565b6100cc610150366004610c87565b61062c565b6100cc610163366004610cf2565b6106a2565b6100cc610176366004610cf2565b6106e4565b610183610821565b6040516100ed9190610dd4565b6101a361019e366004610cf2565b610883565b6040516100ed9190610e45565b6100e16101be366004610cf2565b610996565b6101cb6109c5565b6001600160a01b0381166102355760405162461bcd60e51b815260206004820152602660248201527f4f776e61626c653a206f6c64206f776e657220697320746865207a65726f206160448201526564647265737360d01b60648201526084015b60405180910390fd5b61023e81610a74565b50565b600060028383604051610255929190610ead565b9081526040519081900360200190206001015460ff1690505b92915050565b61027c6109c5565b6001546040516001600160a01b03848116602483015260448201849052600092169060640160408051601f198184030181529181526020820180516001600160e01b03166340c10f1960e01b179052516102d69190610ebd565b6000604051808303816000865af19150503d8060008114610313576040519150601f19603f3d011682016040523d82523d6000602084013e610318565b606091505b505090508061035c5760405162461bcd60e51b815260206004820152601060248201526f1b5a5b9d0818d85b1b0819985a5b195960821b604482015260640161022c565b505050565b6103696109c5565b600154604051602481018390526000916001600160a01b03169060440160408051601f198184030181529181526020820180516001600160e01b0316630852cd8d60e31b179052516103bb9190610ebd565b6000604051808303816000865af19150503d80600081146103f8576040519150601f19603f3d011682016040523d82523d6000602084013e6103fd565b606091505b50509050806104415760405162461bcd60e51b815260206004820152601060248201526f189d5c9b8818d85b1b0819985a5b195960821b604482015260640161022c565b5050565b61044d6109c5565b6104578282610996565b6104735760405162461bcd60e51b815260040161022c90610ed9565b61047d8282610241565b156104d85760405162461bcd60e51b815260206004820152602560248201527f546865206173736574207265666572656e636520697320616c7265616479206c6044820152641bd8dad95960da1b606482015260840161022c565b6001600283836040516104ec929190610ead565b908152604051908190036020019020600101805491151560ff199092169190911790555050565b61051b6109c5565b83836002868660405161052f929190610ead565b9081526040519081900360200190209161054a919083610fb9565b50816002858560405161055e929190610ead565b908152602001604051809103902060020181905550600060028585604051610587929190610ead565b908152604051908190036020018120600101805492151560ff199093169290921790915581906002906105bd9087908790610ead565b908152602001604051809103902060030160006101000a8154816001600160a01b0302191690836001600160a01b03160217905550600160038585604051610606929190610ead565b908152604051908190036020019020805491151560ff1990921691909117905550505050565b6106346109c5565b6001600160a01b0381166106995760405162461bcd60e51b815260206004820152602660248201527f4f776e61626c653a206e6577206f776e657220697320746865207a65726f206160448201526564647265737360d01b606482015260840161022c565b61023e81610ba7565b6106aa6109c5565b6106b48282610996565b6106d05760405162461bcd60e51b815260040161022c90610ed9565b6000600283836040516104ec929190610ead565b6106ec6109c5565b6106f68282610996565b6107125760405162461bcd60e51b815260040161022c90610ed9565b61071c8282610241565b6107685760405162461bcd60e51b815260206004820152601d60248201527f546865206173736574207265666572656e6365206973206c6f636b6564000000604482015260640161022c565b6107946002838360405161077d929190610ead565b908152602001604051809103902060020154610361565b600282826040516107a6929190610ead565b90815260405190819003602001902060006107c18282610c1d565b5060018101805460ff19169055600060028201819055600391820180546001600160a01b03191690556040519091906107fd9085908590610ead565b908152604051908190036020019020805491151560ff199092169190911790555050565b6060600080548060200260200160405190810160405280929190818152602001828054801561087957602002820191906000526020600020905b81546001600160a01b0316815260019091019060200180831161085b575b5050505050905090565b6040805160808101825260608082526000602083018190528284018190529082015290516002906108b79085908590610ead565b90815260200160405180910390206040518060800160405290816000820180546108e090610f31565b80601f016020809104026020016040519081016040528092919081815260200182805461090c90610f31565b80156109595780601f1061092e57610100808354040283529160200191610959565b820191906000526020600020905b81548152906001019060200180831161093c57829003601f168201915b5050509183525050600182015460ff1615156020820152600282015460408201526003909101546001600160a01b03166060909101529392505050565b6000600383836040516109aa929190610ead565b9081526040519081900360200190205460ff16905092915050565b6000805b600054811015610a2157336001600160a01b0316600082815481106109f0576109f061107a565b6000918252602090912001546001600160a01b031603610a0f57600191505b80610a19816110a6565b9150506109c9565b5060018115151461023e5760405162461bcd60e51b815260206004820152601f60248201527f4f776e61626c653a2063616c6c6572206973206e6f7420616e206f776e657200604482015260640161022c565b60005b600054811015610b6f57816001600160a01b031660008281548110610a9e57610a9e61107a565b6000918252602090912001546001600160a01b031603610b5d5760008054610ac8906001906110bf565b81548110610ad857610ad861107a565b600091825260208220015481546001600160a01b03909116919083908110610b0257610b0261107a565b6000918252602082200180546001600160a01b0319166001600160a01b039390931692909217909155805480610b3a57610b3a6110d2565b600082815260209020810160001990810180546001600160a01b03191690550190555b80610b67816110a6565b915050610a77565b506040516001600160a01b038216907f86d076ecf250a6d90a67a7c75317f44709d5001395ecf1df6d9dad5278f1e68190600090a250565b600080546001810182558180527f290decd9548b62a8d60345a988386fc84ba6bc95484008f6362f93160ef3e5630180546001600160a01b0319166001600160a01b03841690811790915560405190917fb4cd6c6140e1db788f68710738b06ef4d0df6a884a06a088433a4c2f5e036e7c91a250565b508054610c2990610f31565b6000825580601f10610c39575050565b601f01602090049060005260206000209081019061023e91905b80821115610c675760008155600101610c53565b5090565b80356001600160a01b0381168114610c8257600080fd5b919050565b600060208284031215610c9957600080fd5b610ca282610c6b565b9392505050565b60008083601f840112610cbb57600080fd5b50813567ffffffffffffffff811115610cd357600080fd5b602083019150836020828501011115610ceb57600080fd5b9250929050565b60008060208385031215610d0557600080fd5b823567ffffffffffffffff811115610d1c57600080fd5b610d2885828601610ca9565b90969095509350505050565b60008060408385031215610d4757600080fd5b610d5083610c6b565b946020939093013593505050565b600060208284031215610d7057600080fd5b5035919050565b60008060008060608587031215610d8d57600080fd5b843567ffffffffffffffff811115610da457600080fd5b610db087828801610ca9565b90955093505060208501359150610dc960408601610c6b565b905092959194509250565b6020808252825182820181905260009190848201906040850190845b81811015610e155783516001600160a01b031683529284019291840191600101610df0565b50909695505050505050565b60005b83811015610e3c578181015183820152602001610e24565b50506000910152565b60208152600082516080602084015280518060a0850152610e6d8160c0860160208501610e21565b60208501511515604085810191909152850151606080860191909152909401516001600160a01b03166080840152505060c0601f909201601f1916010190565b8183823760009101908152919050565b60008251610ecf818460208701610e21565b9190910192915050565b60208082526022908201527f546865206173736574207265666572656e636520646f6573206e6f74206578696040820152611cdd60f21b606082015260800190565b634e487b7160e01b600052604160045260246000fd5b600181811c90821680610f4557607f821691505b602082108103610f6557634e487b7160e01b600052602260045260246000fd5b50919050565b601f82111561035c57600081815260208120601f850160051c81016020861015610f925750805b601f850160051c820191505b81811015610fb157828155600101610f9e565b505050505050565b67ffffffffffffffff831115610fd157610fd1610f1b565b610fe583610fdf8354610f31565b83610f6b565b6000601f84116001811461101957600085156110015750838201355b600019600387901b1c1916600186901b178355611073565b600083815260209020601f19861690835b8281101561104a578685013582556020948501946001909201910161102a565b50868210156110675760001960f88860031b161c19848701351681555b505060018560011b0183555b5050505050565b634e487b7160e01b600052603260045260246000fd5b634e487b7160e01b600052601160045260246000fd5b6000600182016110b8576110b8611090565b5060010190565b8181038181111561026e5761026e611090565b634e487b7160e01b600052603160045260246000fdfea2646970667358221220e790582284dfd1ccb32724580c1a8966a4d1411fc3b75427655deb7e048ef4c364736f6c63430008100033",
    "sourcePath": "/home/andre_9a/cactus/examples/cactus-example-cbdc-bridging-fabric-evm/src/solidity/asset-reference-contract/asset-reference-contract.sol",
    "compiler": {
        "name": "solc",
        "version": "0.8.16+commit.07a7930e"
    },
    "functionHashes": {
        "addOwner(address)": "7065cb48",
        "burn(uint256)": "42966c68",
        "createAssetReference(string,uint256,address)": "663bcc92",
        "deleteAssetReference(string)": "ade3222b",
        "getAssetReference(string)": "b1fa2580",
        "isAssetLocked(string)": "1ae4eb68",
        "isPresent(string)": "bc548275",
        "lockAssetReference(string)": "63773a6c",
        "mint(address,uint256)": "40c10f19",
        "owners()": "affe39c1",
        "removeOwner(address)": "173825d9",
        "unLockAssetReference(string)": "8ef45293"
    },
    "gasEstimates": {
        "creation": {
            "codeDepositCost": "876400",
            "executionCost": "infinite",
            "totalCost": "infinite"
        },
        "external": {
            "addOwner(address)": "infinite",
            "burn(uint256)": "infinite",
            "createAssetReference(string,uint256,address)": "infinite",
            "deleteAssetReference(string)": "infinite",
            "getAssetReference(string)": "infinite",
            "isAssetLocked(string)": "infinite",
            "isPresent(string)": "infinite",
            "lockAssetReference(string)": "infinite",
            "mint(address,uint256)": "infinite",
            "owners()": "infinite",
            "removeOwner(address)": "infinite",
            "unLockAssetReference(string)": "infinite"
        }
    }
}