{
    "contractName": "AssetReferenceContract",
    "abi": [
        {
            "inputs": [
                {
                    "internalType": "address",
                    "name": "account",
                    "type": "address"
                }
            ],
            "stateMutability": "nonpayable",
            "type": "constructor"
        },
        {
            "anonymous": false,
            "inputs": [
                {
                    "indexed": true,
                    "internalType": "address",
                    "name": "newOwner",
                    "type": "address"
                }
            ],
            "name": "OwnershipAdded",
            "type": "event"
        },
        {
            "anonymous": false,
            "inputs": [
                {
                    "indexed": true,
                    "internalType": "address",
                    "name": "previousOwner",
                    "type": "address"
                }
            ],
            "name": "OwnershipRemoved",
            "type": "event"
        },
        {
            "inputs": [
                {
                    "internalType": "address",
                    "name": "newOwner",
                    "type": "address"
                }
            ],
            "name": "addOwner",
            "outputs": [],
            "stateMutability": "nonpayable",
            "type": "function"
        },
        {
            "inputs": [
                {
                    "internalType": "address",
                    "name": "account",
                    "type": "address"
                },
                {
                    "internalType": "uint256",
                    "name": "amount",
                    "type": "uint256"
                }
            ],
            "name": "burn",
            "outputs": [],
            "stateMutability": "nonpayable",
            "type": "function"
        },
        {
            "inputs": [
                {
                    "internalType": "string",
                    "name": "id",
                    "type": "string"
                },
                {
                    "internalType": "uint256",
                    "name": "amount",
                    "type": "uint256"
                },
                {
                    "internalType": "address",
                    "name": "recipient",
                    "type": "address"
                },
                {
                    "internalType": "bool",
                    "name": "bridgeBack",
                    "type": "bool"
                }
            ],
            "name": "createAssetReference",
            "outputs": [],
            "stateMutability": "nonpayable",
            "type": "function"
        },
        {
            "inputs": [
                {
                    "internalType": "string",
                    "name": "id",
                    "type": "string"
                }
            ],
            "name": "deleteAssetReference",
            "outputs": [],
            "stateMutability": "nonpayable",
            "type": "function"
        },
        {
            "inputs": [
                {
                    "internalType": "string",
                    "name": "id",
                    "type": "string"
                }
            ],
            "name": "getAssetReference",
            "outputs": [
                {
                    "components": [
                        {
                            "internalType": "string",
                            "name": "id",
                            "type": "string"
                        },
                        {
                            "internalType": "bool",
                            "name": "isLocked",
                            "type": "bool"
                        },
                        {
                            "internalType": "uint256",
                            "name": "amount",
                            "type": "uint256"
                        },
                        {
                            "internalType": "address",
                            "name": "recipient",
                            "type": "address"
                        }
                    ],
                    "internalType": "struct AssetReference",
                    "name": "",
                    "type": "tuple"
                }
            ],
            "stateMutability": "view",
            "type": "function"
        },
        {
            "inputs": [
                {
                    "internalType": "string",
                    "name": "id",
                    "type": "string"
                }
            ],
            "name": "isAssetLocked",
            "outputs": [
                {
                    "internalType": "bool",
                    "name": "",
                    "type": "bool"
                }
            ],
            "stateMutability": "view",
            "type": "function"
        },
        {
            "inputs": [
                {
                    "internalType": "string",
                    "name": "id",
                    "type": "string"
                }
            ],
            "name": "isPresent",
            "outputs": [
                {
                    "internalType": "bool",
                    "name": "",
                    "type": "bool"
                }
            ],
            "stateMutability": "view",
            "type": "function"
        },
        {
            "inputs": [
                {
                    "internalType": "string",
                    "name": "id",
                    "type": "string"
                }
            ],
            "name": "lockAssetReference",
            "outputs": [],
            "stateMutability": "nonpayable",
            "type": "function"
        },
        {
            "inputs": [
                {
                    "internalType": "string",
                    "name": "ID1",
                    "type": "string"
                },
                {
                    "internalType": "string",
                    "name": "ID2",
                    "type": "string"
                }
            ],
            "name": "mergeAssetReferences",
            "outputs": [],
            "stateMutability": "nonpayable",
            "type": "function"
        },
        {
            "inputs": [
                {
                    "internalType": "address",
                    "name": "account",
                    "type": "address"
                },
                {
                    "internalType": "uint256",
                    "name": "amount",
                    "type": "uint256"
                }
            ],
            "name": "mint",
            "outputs": [],
            "stateMutability": "nonpayable",
            "type": "function"
        },
        {
            "inputs": [],
            "name": "owners",
            "outputs": [
                {
                    "internalType": "address[]",
                    "name": "",
                    "type": "address[]"
                }
            ],
            "stateMutability": "view",
            "type": "function"
        },
        {
            "inputs": [
                {
                    "internalType": "address",
                    "name": "oldOwner",
                    "type": "address"
                }
            ],
            "name": "removeOwner",
            "outputs": [],
            "stateMutability": "nonpayable",
            "type": "function"
        },
        {
            "inputs": [
                {
                    "internalType": "string",
                    "name": "oldID",
                    "type": "string"
                },
                {
                    "internalType": "uint256",
                    "name": "amount",
                    "type": "uint256"
                },
                {
                    "internalType": "string",
                    "name": "newID",
                    "type": "string"
                }
            ],
            "name": "splitAssetReference",
            "outputs": [],
            "stateMutability": "nonpayable",
            "type": "function"
        },
        {
            "inputs": [
                {
                    "internalType": "string",
                    "name": "id",
                    "type": "string"
                }
            ],
            "name": "unLockAssetReference",
            "outputs": [],
            "stateMutability": "nonpayable",
            "type": "function"
        }
    ],
    "bytecode": "608060405234801561001057600080fd5b5060405161179938038061179983398101604081905261002f916100d3565b6100383361005d565b600180546001600160a01b0319166001600160a01b0392909216919091179055610103565b600080546001810182558180527f290decd9548b62a8d60345a988386fc84ba6bc95484008f6362f93160ef3e5630180546001600160a01b0319166001600160a01b03841690811790915560405190917fb4cd6c6140e1db788f68710738b06ef4d0df6a884a06a088433a4c2f5e036e7c91a250565b6000602082840312156100e557600080fd5b81516001600160a01b03811681146100fc57600080fd5b9392505050565b611687806101126000396000f3fe608060405234801561001057600080fd5b50600436106100ea5760003560e01c80637649ec601161008c578063ade3222b11610066578063ade3222b146101c4578063affe39c1146101d7578063b1fa2580146101ec578063bc5482751461020c57600080fd5b80637649ec601461018b5780638ef452931461019e5780639dc29fac146101b157600080fd5b806341283284116100c8578063412832841461013f57806354c2ec531461015257806363773a6c146101655780637065cb481461017857600080fd5b8063173825d9146100ef5780631ae4eb681461010457806340c10f191461012c575b600080fd5b6101026100fd3660046110b6565b61021f565b005b610117610112366004611121565b61029d565b60405190151581526020015b60405180910390f35b61010261013a366004611163565b6102d0565b61010261014d36600461118d565b6103bd565b610102610160366004611207565b6105a3565b610102610173366004611121565b61074d565b6101026101863660046110b6565b61081b565b610102610199366004611273565b610891565b6101026101ac366004611121565b6109bc565b6101026101bf366004611163565b6109fe565b6101026101d2366004611121565b610ae6565b6101df610c50565b60405161012391906112ea565b6101ff6101fa366004611121565b610cb2565b604051610123919061135b565b61011761021a366004611121565b610dc5565b610227610df4565b6001600160a01b0381166102915760405162461bcd60e51b815260206004820152602660248201527f4f776e61626c653a206f6c64206f776e657220697320746865207a65726f206160448201526564647265737360d01b60648201526084015b60405180910390fd5b61029a81610ea3565b50565b6000600283836040516102b19291906113c3565b9081526040519081900360200190206001015460ff1690505b92915050565b6102d8610df4565b6001546040516001600160a01b03848116602483015260448201849052600092169060640160408051601f198184030181529181526020820180516001600160e01b03166340c10f1960e01b1790525161033291906113d3565b6000604051808303816000865af19150503d806000811461036f576040519150601f19603f3d011682016040523d82523d6000602084013e610374565b606091505b50509050806103b85760405162461bcd60e51b815260206004820152601060248201526f1b5a5b9d0818d85b1b0819985a5b195960821b6044820152606401610288565b505050565b6103c5610df4565b6103cf8585610dc5565b6103eb5760405162461bcd60e51b8152600401610288906113ef565b6103f5858561029d565b156104125760405162461bcd60e51b815260040161028890611431565b8181600284846040516104269291906113c3565b90815260405190819003602001902091610441919083611510565b5082600286866040516104559291906113c3565b90815260200160405180910390206002015461047191906115e6565b600283836040516104839291906113c3565b9081526020016040518091039020600201819055506000600283836040516104ac9291906113c3565b908152604051908190036020018120600101805492151560ff19909316929092179091556002906104e090879087906113c3565b908152604051908190036020018120600301546001600160a01b03169060029061050d90859085906113c3565b908152602001604051809103902060030160006101000a8154816001600160a01b0302191690836001600160a01b031602179055506001600383836040516105569291906113c3565b908152604051908190036020018120805492151560ff1990931692909217909155839060029061058990889088906113c3565b908152604051908190036020019020600201555050505050565b6105ab610df4565b6105b58484610dc5565b6105d15760405162461bcd60e51b8152600401610288906113ef565b6105db848461029d565b156105f85760405162461bcd60e51b815260040161028890611431565b6106028282610dc5565b61061e5760405162461bcd60e51b8152600401610288906113ef565b610628828261029d565b156106455760405162461bcd60e51b815260040161028890611431565b600282826040516106579291906113c3565b9081526020016040518091039020600201546002858560405161067b9291906113c3565b90815260200160405180910390206002015461069791906115f9565b600285856040516106a99291906113c3565b908152602001604051809103902060020181905550600282826040516106d09291906113c3565b90815260405190819003602001902060006106eb828261104c565b5060018101805460ff19169055600060028201819055600391820180546001600160a01b031916905560405190919061072790859085906113c3565b908152604051908190036020019020805491151560ff1990921691909117905550505050565b610755610df4565b61075f8282610dc5565b61077b5760405162461bcd60e51b8152600401610288906113ef565b610785828261029d565b156107e05760405162461bcd60e51b815260206004820152602560248201527f546865206173736574207265666572656e636520697320616c7265616479206c6044820152641bd8dad95960da1b6064820152608401610288565b6001600283836040516107f49291906113c3565b908152604051908190036020019020600101805491151560ff199092169190911790555050565b610823610df4565b6001600160a01b0381166108885760405162461bcd60e51b815260206004820152602660248201527f4f776e61626c653a206e6577206f776e657220697320746865207a65726f206160448201526564647265737360d01b6064820152608401610288565b61029a81610fd6565b610899610df4565b80156109ab578484600287876040516108b39291906113c3565b908152604051908190036020019020916108ce919083611510565b5082600286866040516108e29291906113c3565b90815260200160405180910390206002018190555060006002868660405161090b9291906113c3565b908152604051908190036020018120600101805492151560ff1990931692909217909155829060029061094190889088906113c3565b908152602001604051809103902060030160006101000a8154816001600160a01b0302191690836001600160a01b0316021790555060016003868660405161098a9291906113c3565b908152604051908190036020019020805491151560ff199092169190911790555b6109b582846102d0565b5050505050565b6109c4610df4565b6109ce8282610dc5565b6109ea5760405162461bcd60e51b8152600401610288906113ef565b6000600283836040516107f49291906113c3565b610a06610df4565b6001546040516001600160a01b03848116602483015260448201849052600092169060640160408051601f198184030181529181526020820180516001600160e01b0316632770a7eb60e21b17905251610a6091906113d3565b6000604051808303816000865af19150503d8060008114610a9d576040519150601f19603f3d011682016040523d82523d6000602084013e610aa2565b606091505b50509050806103b85760405162461bcd60e51b815260206004820152601060248201526f189d5c9b8818d85b1b0819985a5b195960821b6044820152606401610288565b610aee610df4565b610af88282610dc5565b610b145760405162461bcd60e51b8152600401610288906113ef565b610b1e828261029d565b610b6a5760405162461bcd60e51b815260206004820152601d60248201527f546865206173736574207265666572656e6365206973206c6f636b65640000006044820152606401610288565b610bc360028383604051610b7f9291906113c3565b908152604051908190036020018120600301546001600160a01b031690600290610bac90869086906113c3565b9081526020016040518091039020600201546109fe565b60028282604051610bd59291906113c3565b9081526040519081900360200190206000610bf0828261104c565b5060018101805460ff19169055600060028201819055600391820180546001600160a01b0319169055604051909190610c2c90859085906113c3565b908152604051908190036020019020805491151560ff199092169190911790555050565b60606000805480602002602001604051908101604052809291908181526020018280548015610ca857602002820191906000526020600020905b81546001600160a01b03168152600190910190602001808311610c8a575b5050505050905090565b604080516080810182526060808252600060208301819052828401819052908201529051600290610ce690859085906113c3565b9081526020016040518091039020604051806080016040529081600082018054610d0f90611488565b80601f0160208091040260200160405190810160405280929190818152602001828054610d3b90611488565b8015610d885780601f10610d5d57610100808354040283529160200191610d88565b820191906000526020600020905b815481529060010190602001808311610d6b57829003601f168201915b5050509183525050600182015460ff1615156020820152600282015460408201526003909101546001600160a01b03166060909101529392505050565b600060038383604051610dd99291906113c3565b9081526040519081900360200190205460ff16905092915050565b6000805b600054811015610e5057336001600160a01b031660008281548110610e1f57610e1f61160c565b6000918252602090912001546001600160a01b031603610e3e57600191505b80610e4881611622565b915050610df8565b5060018115151461029a5760405162461bcd60e51b815260206004820152601f60248201527f4f776e61626c653a2063616c6c6572206973206e6f7420616e206f776e6572006044820152606401610288565b60005b600054811015610f9e57816001600160a01b031660008281548110610ecd57610ecd61160c565b6000918252602090912001546001600160a01b031603610f8c5760008054610ef7906001906115e6565b81548110610f0757610f0761160c565b600091825260208220015481546001600160a01b03909116919083908110610f3157610f3161160c565b6000918252602082200180546001600160a01b0319166001600160a01b039390931692909217909155805480610f6957610f6961163b565b600082815260209020810160001990810180546001600160a01b03191690550190555b80610f9681611622565b915050610ea6565b506040516001600160a01b038216907f86d076ecf250a6d90a67a7c75317f44709d5001395ecf1df6d9dad5278f1e68190600090a250565b600080546001810182558180527f290decd9548b62a8d60345a988386fc84ba6bc95484008f6362f93160ef3e5630180546001600160a01b0319166001600160a01b03841690811790915560405190917fb4cd6c6140e1db788f68710738b06ef4d0df6a884a06a088433a4c2f5e036e7c91a250565b50805461105890611488565b6000825580601f10611068575050565b601f01602090049060005260206000209081019061029a91905b808211156110965760008155600101611082565b5090565b80356001600160a01b03811681146110b157600080fd5b919050565b6000602082840312156110c857600080fd5b6110d18261109a565b9392505050565b60008083601f8401126110ea57600080fd5b50813567ffffffffffffffff81111561110257600080fd5b60208301915083602082850101111561111a57600080fd5b9250929050565b6000806020838503121561113457600080fd5b823567ffffffffffffffff81111561114b57600080fd5b611157858286016110d8565b90969095509350505050565b6000806040838503121561117657600080fd5b61117f8361109a565b946020939093013593505050565b6000806000806000606086880312156111a557600080fd5b853567ffffffffffffffff808211156111bd57600080fd5b6111c989838a016110d8565b90975095506020880135945060408801359150808211156111e957600080fd5b506111f6888289016110d8565b969995985093965092949392505050565b6000806000806040858703121561121d57600080fd5b843567ffffffffffffffff8082111561123557600080fd5b611241888389016110d8565b9096509450602087013591508082111561125a57600080fd5b50611267878288016110d8565b95989497509550505050565b60008060008060006080868803121561128b57600080fd5b853567ffffffffffffffff8111156112a257600080fd5b6112ae888289016110d8565b909650945050602086013592506112c76040870161109a565b9150606086013580151581146112dc57600080fd5b809150509295509295909350565b6020808252825182820181905260009190848201906040850190845b8181101561132b5783516001600160a01b031683529284019291840191600101611306565b50909695505050505050565b60005b8381101561135257818101518382015260200161133a565b50506000910152565b60208152600082516080602084015280518060a08501526113838160c0860160208501611337565b60208501511515604085810191909152850151606080860191909152909401516001600160a01b03166080840152505060c0601f909201601f1916010190565b8183823760009101908152919050565b600082516113e5818460208701611337565b9190910192915050565b60208082526022908201527f546865206173736574207265666572656e636520646f6573206e6f74206578696040820152611cdd60f21b606082015260800190565b60208082526021908201527f546865206173736574207265666572656e6365206973206e6f74206c6f636b656040820152601960fa1b606082015260800190565b634e487b7160e01b600052604160045260246000fd5b600181811c9082168061149c57607f821691505b6020821081036114bc57634e487b7160e01b600052602260045260246000fd5b50919050565b601f8211156103b857600081815260208120601f850160051c810160208610156114e95750805b601f850160051c820191505b81811015611508578281556001016114f5565b505050505050565b67ffffffffffffffff83111561152857611528611472565b61153c836115368354611488565b836114c2565b6000601f84116001811461157057600085156115585750838201355b600019600387901b1c1916600186901b1783556109b5565b600083815260209020601f19861690835b828110156115a15786850135825560209485019460019092019101611581565b50868210156115be5760001960f88860031b161c19848701351681555b505060018560011b0183555050505050565b634e487b7160e01b600052601160045260246000fd5b818103818111156102ca576102ca6115d0565b808201808211156102ca576102ca6115d0565b634e487b7160e01b600052603260045260246000fd5b600060018201611634576116346115d0565b5060010190565b634e487b7160e01b600052603160045260246000fdfea26469706673582212204204a85085bae200cde41191b006990681d0eb58ce84ed6c6ca6a934b64a377664736f6c63430008100033",
    "sourcePath": "/home/andre_9a/cactus/examples/cactus-example-cbdc-bridging-fabric-evm/src/solidity/asset-reference-contract/asset-reference-contract.sol",
    "compiler": {
        "name": "solc",
        "version": "0.8.16+commit.07a7930e"
    },
    "functionHashes": {
        "addOwner(address)": "7065cb48",
        "burn(address,uint256)": "9dc29fac",
        "createAssetReference(string,uint256,address,bool)": "7649ec60",
        "deleteAssetReference(string)": "ade3222b",
        "getAssetReference(string)": "b1fa2580",
        "isAssetLocked(string)": "1ae4eb68",
        "isPresent(string)": "bc548275",
        "lockAssetReference(string)": "63773a6c",
        "mergeAssetReferences(string,string)": "54c2ec53",
        "mint(address,uint256)": "40c10f19",
        "owners()": "affe39c1",
        "removeOwner(address)": "173825d9",
        "splitAssetReference(string,uint256,string)": "41283284",
        "unLockAssetReference(string)": "8ef45293"
    },
    "gasEstimates": {
        "creation": {
            "codeDepositCost": "1153400",
            "executionCost": "infinite",
            "totalCost": "infinite"
        },
        "external": {
            "addOwner(address)": "infinite",
            "burn(address,uint256)": "infinite",
            "createAssetReference(string,uint256,address,bool)": "infinite",
            "deleteAssetReference(string)": "infinite",
            "getAssetReference(string)": "infinite",
            "isAssetLocked(string)": "infinite",
            "isPresent(string)": "infinite",
            "lockAssetReference(string)": "infinite",
            "mergeAssetReferences(string,string)": "infinite",
            "mint(address,uint256)": "infinite",
            "owners()": "infinite",
            "removeOwner(address)": "infinite",
            "splitAssetReference(string,uint256,string)": "infinite",
            "unLockAssetReference(string)": "infinite"
        }
    }
}