{
    "contractName": "AssetReferenceContract",
    "abi": [
        {
            "inputs": [
                {
                    "internalType": "address",
                    "name": "account",
                    "type": "address"
                }
            ],
            "stateMutability": "nonpayable",
            "type": "constructor"
        },
        {
            "anonymous": false,
            "inputs": [
                {
                    "indexed": true,
                    "internalType": "address",
                    "name": "newOwner",
                    "type": "address"
                }
            ],
            "name": "OwnershipAdded",
            "type": "event"
        },
        {
            "anonymous": false,
            "inputs": [
                {
                    "indexed": true,
                    "internalType": "address",
                    "name": "previousOwner",
                    "type": "address"
                }
            ],
            "name": "OwnershipRemoved",
            "type": "event"
        },
        {
            "inputs": [
                {
                    "internalType": "address",
                    "name": "newOwner",
                    "type": "address"
                }
            ],
            "name": "addOwner",
            "outputs": [],
            "stateMutability": "nonpayable",
            "type": "function"
        },
        {
            "inputs": [
                {
                    "internalType": "uint256",
                    "name": "amount",
                    "type": "uint256"
                }
            ],
            "name": "burn",
            "outputs": [],
            "stateMutability": "nonpayable",
            "type": "function"
        },
        {
            "inputs": [
                {
                    "internalType": "string",
                    "name": "id",
                    "type": "string"
                },
                {
                    "internalType": "uint256",
                    "name": "amount",
                    "type": "uint256"
                },
                {
                    "internalType": "address",
                    "name": "user",
                    "type": "address"
                }
            ],
            "name": "checkValidBridgeBack",
            "outputs": [
                {
                    "internalType": "bool",
                    "name": "",
                    "type": "bool"
                }
            ],
            "stateMutability": "view",
            "type": "function"
        },
        {
            "inputs": [
                {
                    "internalType": "string",
                    "name": "id",
                    "type": "string"
                },
                {
                    "internalType": "uint256",
                    "name": "amount",
                    "type": "uint256"
                },
                {
                    "internalType": "address",
                    "name": "recipient",
                    "type": "address"
                }
            ],
            "name": "createAssetReference",
            "outputs": [],
            "stateMutability": "nonpayable",
            "type": "function"
        },
        {
            "inputs": [
                {
                    "internalType": "string",
                    "name": "id",
                    "type": "string"
                }
            ],
            "name": "deleteAssetReference",
            "outputs": [],
            "stateMutability": "nonpayable",
            "type": "function"
        },
        {
            "inputs": [],
            "name": "getAllAssetReferences",
            "outputs": [
                {
                    "components": [
                        {
                            "internalType": "string",
                            "name": "id",
                            "type": "string"
                        },
                        {
                            "internalType": "bool",
                            "name": "isLocked",
                            "type": "bool"
                        },
                        {
                            "internalType": "uint256",
                            "name": "amount",
                            "type": "uint256"
                        },
                        {
                            "internalType": "address",
                            "name": "recipient",
                            "type": "address"
                        }
                    ],
                    "internalType": "struct AssetReference[]",
                    "name": "",
                    "type": "tuple[]"
                }
            ],
            "stateMutability": "view",
            "type": "function"
        },
        {
            "inputs": [
                {
                    "internalType": "string",
                    "name": "id",
                    "type": "string"
                }
            ],
            "name": "getAssetReference",
            "outputs": [
                {
                    "components": [
                        {
                            "internalType": "string",
                            "name": "id",
                            "type": "string"
                        },
                        {
                            "internalType": "bool",
                            "name": "isLocked",
                            "type": "bool"
                        },
                        {
                            "internalType": "uint256",
                            "name": "amount",
                            "type": "uint256"
                        },
                        {
                            "internalType": "address",
                            "name": "recipient",
                            "type": "address"
                        }
                    ],
                    "internalType": "struct AssetReference",
                    "name": "",
                    "type": "tuple"
                }
            ],
            "stateMutability": "view",
            "type": "function"
        },
        {
            "inputs": [
                {
                    "internalType": "string",
                    "name": "id",
                    "type": "string"
                }
            ],
            "name": "isAssetLocked",
            "outputs": [
                {
                    "internalType": "bool",
                    "name": "",
                    "type": "bool"
                }
            ],
            "stateMutability": "view",
            "type": "function"
        },
        {
            "inputs": [
                {
                    "internalType": "string",
                    "name": "id",
                    "type": "string"
                }
            ],
            "name": "isPresent",
            "outputs": [
                {
                    "internalType": "bool",
                    "name": "",
                    "type": "bool"
                }
            ],
            "stateMutability": "view",
            "type": "function"
        },
        {
            "inputs": [
                {
                    "internalType": "string",
                    "name": "id",
                    "type": "string"
                }
            ],
            "name": "lockAssetReference",
            "outputs": [],
            "stateMutability": "nonpayable",
            "type": "function"
        },
        {
            "inputs": [
                {
                    "internalType": "address",
                    "name": "account",
                    "type": "address"
                },
                {
                    "internalType": "uint256",
                    "name": "amount",
                    "type": "uint256"
                }
            ],
            "name": "mint",
            "outputs": [],
            "stateMutability": "nonpayable",
            "type": "function"
        },
        {
            "inputs": [],
            "name": "owners",
            "outputs": [
                {
                    "internalType": "address[]",
                    "name": "",
                    "type": "address[]"
                }
            ],
            "stateMutability": "view",
            "type": "function"
        },
        {
            "inputs": [
                {
                    "internalType": "uint256",
                    "name": "_index",
                    "type": "uint256"
                }
            ],
            "name": "removeItemFromList",
            "outputs": [],
            "stateMutability": "nonpayable",
            "type": "function"
        },
        {
            "inputs": [
                {
                    "internalType": "address",
                    "name": "oldOwner",
                    "type": "address"
                }
            ],
            "name": "removeOwner",
            "outputs": [],
            "stateMutability": "nonpayable",
            "type": "function"
        },
        {
            "inputs": [
                {
                    "internalType": "string",
                    "name": "id",
                    "type": "string"
                }
            ],
            "name": "unLockAssetReference",
            "outputs": [],
            "stateMutability": "nonpayable",
            "type": "function"
        }
    ],
    "bytecode": "608060405234801561001057600080fd5b506040516119d43803806119d483398101604081905261002f916100d3565b6100383361005d565b600180546001600160a01b0319166001600160a01b0392909216919091179055610103565b600080546001810182558180527f290decd9548b62a8d60345a988386fc84ba6bc95484008f6362f93160ef3e5630180546001600160a01b0319166001600160a01b03841690811790915560405190917fb4cd6c6140e1db788f68710738b06ef4d0df6a884a06a088433a4c2f5e036e7c91a250565b6000602082840312156100e557600080fd5b81516001600160a01b03811681146100fc57600080fd5b9392505050565b6118c2806101126000396000f3fe608060405234801561001057600080fd5b50600436106100f55760003560e01c80637065cb4811610097578063affe39c111610066578063affe39c1146101e2578063b1fa2580146101f7578063bc54827514610217578063c8da01af1461022a57600080fd5b80637065cb48146101965780638ef45293146101a95780639ca27299146101bc578063ade3222b146101cf57600080fd5b806340c10f19116100d357806340c10f191461014a57806342966c681461015d57806363773a6c14610170578063663bcc921461018357600080fd5b8063173825d9146100fa5780631ae4eb681461010f57806321db00b314610137575b600080fd5b61010d61010836600461119b565b61023f565b005b61012261011d366004611206565b6102bd565b60405190151581526020015b60405180910390f35b61010d610145366004611248565b6102f0565b61010d610158366004611261565b610463565b61010d61016b366004611248565b610550565b61010d61017e366004611206565b610634565b61010d61019136600461128b565b610702565b61010d6101a436600461119b565b6108e8565b61010d6101b7366004611206565b61095e565b6101226101ca36600461128b565b6109a0565b61010d6101dd366004611206565b610a39565b6101ea610c12565b60405161012e91906112e8565b61020a610205366004611206565b610c74565b60405161012e91906113b6565b610122610225366004611206565b610d87565b610232610db6565b60405161012e91906113c9565b610247610ed9565b6001600160a01b0381166102b15760405162461bcd60e51b815260206004820152602660248201527f4f776e61626c653a206f6c64206f776e657220697320746865207a65726f206160448201526564647265737360d01b60648201526084015b60405180910390fd5b6102ba81610f88565b50565b6000600283836040516102d192919061142b565b9081526040519081900360200190206001015460ff1690505b92915050565b60045481106103365760405162461bcd60e51b81526020600482015260126024820152711a5b99195e081bdd5d081bd988189bdd5b9960721b60448201526064016102a8565b805b60045461034790600190611451565b81101561040757600461035b826001611464565b8154811061036b5761036b611477565b90600052602060002090600402016004828154811061038c5761038c611477565b60009182526020909120600490910201806103a78382611540565b50600182810154908201805460ff909216151560ff1990921691909117905560028083015490820155600391820154910180546001600160a01b0319166001600160a01b03909216919091179055806103ff8161161b565b915050610338565b50600480548061041957610419611634565b600082815260208120600019909201916004830201906104398282611131565b5060018101805460ff191690556000600282015560030180546001600160a01b0319169055905550565b61046b610ed9565b6001546040516001600160a01b03848116602483015260448201849052600092169060640160408051601f198184030181529181526020820180516001600160e01b03166340c10f1960e01b179052516104c5919061164a565b6000604051808303816000865af19150503d8060008114610502576040519150601f19603f3d011682016040523d82523d6000602084013e610507565b606091505b505090508061054b5760405162461bcd60e51b815260206004820152601060248201526f1b5a5b9d0818d85b1b0819985a5b195960821b60448201526064016102a8565b505050565b610558610ed9565b600154604051602481018390526000916001600160a01b03169060440160408051601f198184030181529181526020820180516001600160e01b0316630852cd8d60e31b179052516105aa919061164a565b6000604051808303816000865af19150503d80600081146105e7576040519150601f19603f3d011682016040523d82523d6000602084013e6105ec565b606091505b50509050806106305760405162461bcd60e51b815260206004820152601060248201526f189d5c9b8818d85b1b0819985a5b195960821b60448201526064016102a8565b5050565b61063c610ed9565b6106468282610d87565b6106625760405162461bcd60e51b81526004016102a890611666565b61066c82826102bd565b156106c75760405162461bcd60e51b815260206004820152602560248201527f546865206173736574207265666572656e636520697320616c7265616479206c6044820152641bd8dad95960da1b60648201526084016102a8565b6001600283836040516106db92919061142b565b908152604051908190036020019020600101805491151560ff199092169190911790555050565b61070a610ed9565b83836002868660405161071e92919061142b565b908152604051908190036020019020916107399190836116a8565b50816002858560405161074d92919061142b565b90815260200160405180910390206002018190555060006002858560405161077692919061142b565b908152604051908190036020018120600101805492151560ff199093169290921790915581906002906107ac908790879061142b565b908152602001604051809103902060030160006101000a8154816001600160a01b0302191690836001600160a01b031602179055506001600385856040516107f592919061142b565b908152604080519182900360209081018320805494151560ff199095169490941790935560a0601f870184900490930282018301905260808101858152600492829190889088908190850183828082843760009201829052509385525050506020808301829052604083018790526001600160a01b03861660609093019290925283546001810185559381522081519192600402019081906108979082611762565b50602082015160018201805460ff191691151591909117905560408201516002820155606090910151600390910180546001600160a01b0319166001600160a01b0390921691909117905550505050565b6108f0610ed9565b6001600160a01b0381166109555760405162461bcd60e51b815260206004820152602660248201527f4f776e61626c653a206e6577206f776e657220697320746865207a65726f206160448201526564647265737360d01b60648201526084016102a8565b6102ba816110bb565b610966610ed9565b6109708282610d87565b61098c5760405162461bcd60e51b81526004016102a890611666565b6000600283836040516106db92919061142b565b60006109ac8585610d87565b6109c85760405162461bcd60e51b81526004016102a890611666565b82600286866040516109db92919061142b565b90815260200160405180910390206002015410158015610a305750816001600160a01b031660028686604051610a1292919061142b565b908152604051908190036020019020600301546001600160a01b0316145b95945050505050565b610a41610ed9565b610a4b8282610d87565b610a675760405162461bcd60e51b81526004016102a890611666565b610a7182826102bd565b610abd5760405162461bcd60e51b815260206004820152601d60248201527f546865206173736574207265666572656e6365206973206c6f636b656400000060448201526064016102a8565b610ae960028383604051610ad292919061142b565b908152602001604051809103902060020154610550565b60028282604051610afb92919061142b565b9081526040519081900360200190206000610b168282611131565b5060018101805460ff19169055600060028201819055600391820180546001600160a01b0319169055604051909190610b52908590859061142b565b908152604051908190036020019020805491151560ff1990921691909117905560005b60045481101561054b578282604051602001610b9292919061142b565b6040516020818303038152906040528051906020012060048281548110610bbb57610bbb611477565b9060005260206000209060040201600001604051602001610bdc9190611816565b6040516020818303038152906040528051906020012003610c0057610c00816102f0565b80610c0a8161161b565b915050610b75565b60606000805480602002602001604051908101604052809291908181526020018280548015610c6a57602002820191906000526020600020905b81546001600160a01b03168152600190910190602001808311610c4c575b5050505050905090565b604080516080810182526060808252600060208301819052828401819052908201529051600290610ca8908590859061142b565b9081526020016040518091039020604051806080016040529081600082018054610cd19061148d565b80601f0160208091040260200160405190810160405280929190818152602001828054610cfd9061148d565b8015610d4a5780601f10610d1f57610100808354040283529160200191610d4a565b820191906000526020600020905b815481529060010190602001808311610d2d57829003601f168201915b5050509183525050600182015460ff1615156020820152600282015460408201526003909101546001600160a01b03166060909101529392505050565b600060038383604051610d9b92919061142b565b9081526040519081900360200190205460ff16905092915050565b60606004805480602002602001604051908101604052809291908181526020016000905b82821015610ed05783829060005260206000209060040201604051806080016040529081600082018054610e0d9061148d565b80601f0160208091040260200160405190810160405280929190818152602001828054610e399061148d565b8015610e865780601f10610e5b57610100808354040283529160200191610e86565b820191906000526020600020905b815481529060010190602001808311610e6957829003601f168201915b505050918352505060018281015460ff161515602080840191909152600284015460408401526003909301546001600160a01b031660609092019190915291835292019101610dda565b50505050905090565b6000805b600054811015610f3557336001600160a01b031660008281548110610f0457610f04611477565b6000918252602090912001546001600160a01b031603610f2357600191505b80610f2d8161161b565b915050610edd565b506001811515146102ba5760405162461bcd60e51b815260206004820152601f60248201527f4f776e61626c653a2063616c6c6572206973206e6f7420616e206f776e65720060448201526064016102a8565b60005b60005481101561108357816001600160a01b031660008281548110610fb257610fb2611477565b6000918252602090912001546001600160a01b0316036110715760008054610fdc90600190611451565b81548110610fec57610fec611477565b600091825260208220015481546001600160a01b0390911691908390811061101657611016611477565b6000918252602082200180546001600160a01b0319166001600160a01b03939093169290921790915580548061104e5761104e611634565b600082815260209020810160001990810180546001600160a01b03191690550190555b8061107b8161161b565b915050610f8b565b506040516001600160a01b038216907f86d076ecf250a6d90a67a7c75317f44709d5001395ecf1df6d9dad5278f1e68190600090a250565b600080546001810182558180527f290decd9548b62a8d60345a988386fc84ba6bc95484008f6362f93160ef3e5630180546001600160a01b0319166001600160a01b03841690811790915560405190917fb4cd6c6140e1db788f68710738b06ef4d0df6a884a06a088433a4c2f5e036e7c91a250565b50805461113d9061148d565b6000825580601f1061114d575050565b601f0160209004906000526020600020908101906102ba91905b8082111561117b5760008155600101611167565b5090565b80356001600160a01b038116811461119657600080fd5b919050565b6000602082840312156111ad57600080fd5b6111b68261117f565b9392505050565b60008083601f8401126111cf57600080fd5b50813567ffffffffffffffff8111156111e757600080fd5b6020830191508360208285010111156111ff57600080fd5b9250929050565b6000806020838503121561121957600080fd5b823567ffffffffffffffff81111561123057600080fd5b61123c858286016111bd565b90969095509350505050565b60006020828403121561125a57600080fd5b5035919050565b6000806040838503121561127457600080fd5b61127d8361117f565b946020939093013593505050565b600080600080606085870312156112a157600080fd5b843567ffffffffffffffff8111156112b857600080fd5b6112c4878288016111bd565b909550935050602085013591506112dd6040860161117f565b905092959194509250565b6020808252825182820181905260009190848201906040850190845b818110156113295783516001600160a01b031683529284019291840191600101611304565b50909695505050505050565b60005b83811015611350578181015183820152602001611338565b50506000910152565b6000815160808452805180608086015261137a8160a0870160208501611335565b602084810151151590860152604080850151908601526060938401516001600160a01b0316938501939093525050601f01601f19160160a00190565b6020815260006111b66020830184611359565b6000602080830181845280855180835260408601915060408160051b870101925083870160005b8281101561141e57603f1988860301845261140c858351611359565b945092850192908501906001016113f0565b5092979650505050505050565b8183823760009101908152919050565b634e487b7160e01b600052601160045260246000fd5b818103818111156102ea576102ea61143b565b808201808211156102ea576102ea61143b565b634e487b7160e01b600052603260045260246000fd5b600181811c908216806114a157607f821691505b6020821081036114c157634e487b7160e01b600052602260045260246000fd5b50919050565b634e487b7160e01b600052604160045260246000fd5b601f82111561054b57600081815260208120601f850160051c810160208610156115045750805b601f850160051c820191505b8181101561152357828155600101611510565b505050505050565b600019600383901b1c191660019190911b1790565b81810361154b575050565b611555825461148d565b67ffffffffffffffff81111561156d5761156d6114c7565b6115818161157b845461148d565b846114dd565b6000601f8211600181146115af576000831561159d5750848201545b6115a7848261152b565b855550611614565b600085815260209020601f19841690600086815260209020845b838110156115e957828601548255600195860195909101906020016115c9565b50858310156116075781850154600019600388901b60f8161c191681555b50505060018360011b0184555b5050505050565b60006001820161162d5761162d61143b565b5060010190565b634e487b7160e01b600052603160045260246000fd5b6000825161165c818460208701611335565b9190910192915050565b60208082526022908201527f546865206173736574207265666572656e636520646f6573206e6f74206578696040820152611cdd60f21b606082015260800190565b67ffffffffffffffff8311156116c0576116c06114c7565b6116d4836116ce835461148d565b836114dd565b6000601f84116001811461170257600085156116f05750838201355b6116fa868261152b565b845550611614565b600083815260209020601f19861690835b828110156117335786850135825560209485019460019092019101611713565b50868210156117505760001960f88860031b161c19848701351681555b505060018560011b0183555050505050565b815167ffffffffffffffff81111561177c5761177c6114c7565b61178a8161157b845461148d565b602080601f8311600181146117b957600084156117a75750858301515b6117b1858261152b565b865550611523565b600085815260208120601f198616915b828110156117e8578886015182559484019460019091019084016117c9565b50858210156118065787850151600019600388901b60f8161c191681555b5050505050600190811b01905550565b60008083546118248161148d565b6001828116801561183c576001811461185157611880565b60ff1984168752821515830287019450611880565b8760005260208060002060005b858110156118775781548a82015290840190820161185e565b50505082870194505b5092969550505050505056fea26469706673582212200e1f705e4c244f21490eaca73338ec34dcb694da85606bc95abb7a7e572c3c2564736f6c63430008100033",
    "sourcePath": "/Users/andre/Desktop/AssetReferenceContract.sol",
    "compiler": {
        "name": "solc",
        "version": "0.8.16+commit.07a7930e"
    },
    "functionHashes": {
        "addOwner(address)": "7065cb48",
        "burn(uint256)": "42966c68",
        "checkValidBridgeBack(string,uint256,address)": "9ca27299",
        "createAssetReference(string,uint256,address)": "663bcc92",
        "deleteAssetReference(string)": "ade3222b",
        "getAllAssetReferences()": "c8da01af",
        "getAssetReference(string)": "b1fa2580",
        "isAssetLocked(string)": "1ae4eb68",
        "isPresent(string)": "bc548275",
        "lockAssetReference(string)": "63773a6c",
        "mint(address,uint256)": "40c10f19",
        "owners()": "affe39c1",
        "removeItemFromList(uint256)": "21db00b3",
        "removeOwner(address)": "173825d9",
        "unLockAssetReference(string)": "8ef45293"
    },
    "gasEstimates": {
        "creation": {
            "codeDepositCost": "1267600",
            "executionCost": "infinite",
            "totalCost": "infinite"
        },
        "external": {
            "addOwner(address)": "infinite",
            "burn(uint256)": "infinite",
            "checkValidBridgeBack(string,uint256,address)": "infinite",
            "createAssetReference(string,uint256,address)": "infinite",
            "deleteAssetReference(string)": "infinite",
            "getAllAssetReferences()": "infinite",
            "getAssetReference(string)": "infinite",
            "isAssetLocked(string)": "infinite",
            "isPresent(string)": "infinite",
            "lockAssetReference(string)": "infinite",
            "mint(address,uint256)": "infinite",
            "owners()": "infinite",
            "removeItemFromList(uint256)": "infinite",
            "removeOwner(address)": "infinite",
            "unLockAssetReference(string)": "infinite"
        }
    }
}