{
    "contractName": "AssetReferenceContract",
    "abi": [
        {
            "inputs": [
                {
                    "internalType": "address",
                    "name": "account",
                    "type": "address"
                }
            ],
            "stateMutability": "nonpayable",
            "type": "constructor"
        },
        {
            "anonymous": false,
            "inputs": [
                {
                    "indexed": true,
                    "internalType": "address",
                    "name": "previousOwner",
                    "type": "address"
                },
                {
                    "indexed": true,
                    "internalType": "address",
                    "name": "newOwner",
                    "type": "address"
                }
            ],
            "name": "OwnershipTransferred",
            "type": "event"
        },
        {
            "inputs": [
                {
                    "internalType": "string",
                    "name": "id",
                    "type": "string"
                },
                {
                    "internalType": "uint256",
                    "name": "numberTokens",
                    "type": "uint256"
                },
                {
                    "internalType": "address",
                    "name": "recipient",
                    "type": "address"
                }
            ],
            "name": "createAssetReference",
            "outputs": [],
            "stateMutability": "nonpayable",
            "type": "function"
        },
        {
            "inputs": [
                {
                    "internalType": "string",
                    "name": "id",
                    "type": "string"
                }
            ],
            "name": "deleteAssetReference",
            "outputs": [],
            "stateMutability": "nonpayable",
            "type": "function"
        },
        {
            "inputs": [
                {
                    "internalType": "string",
                    "name": "id",
                    "type": "string"
                }
            ],
            "name": "getAssetReference",
            "outputs": [
                {
                    "components": [
                        {
                            "internalType": "string",
                            "name": "id",
                            "type": "string"
                        },
                        {
                            "internalType": "bool",
                            "name": "isLocked",
                            "type": "bool"
                        },
                        {
                            "internalType": "uint256",
                            "name": "numberTokens",
                            "type": "uint256"
                        }
                    ],
                    "internalType": "struct AssetReference",
                    "name": "",
                    "type": "tuple"
                }
            ],
            "stateMutability": "view",
            "type": "function"
        },
        {
            "inputs": [
                {
                    "internalType": "string",
                    "name": "id",
                    "type": "string"
                }
            ],
            "name": "isAssetLocked",
            "outputs": [
                {
                    "internalType": "bool",
                    "name": "",
                    "type": "bool"
                }
            ],
            "stateMutability": "view",
            "type": "function"
        },
        {
            "inputs": [
                {
                    "internalType": "string",
                    "name": "id",
                    "type": "string"
                }
            ],
            "name": "isPresent",
            "outputs": [
                {
                    "internalType": "bool",
                    "name": "",
                    "type": "bool"
                }
            ],
            "stateMutability": "view",
            "type": "function"
        },
        {
            "inputs": [
                {
                    "internalType": "string",
                    "name": "id",
                    "type": "string"
                }
            ],
            "name": "lockAssetReference",
            "outputs": [],
            "stateMutability": "nonpayable",
            "type": "function"
        },
        {
            "inputs": [
                {
                    "internalType": "address",
                    "name": "account",
                    "type": "address"
                },
                {
                    "internalType": "uint256",
                    "name": "amount",
                    "type": "uint256"
                }
            ],
            "name": "mint",
            "outputs": [],
            "stateMutability": "nonpayable",
            "type": "function"
        },
        {
            "inputs": [],
            "name": "owner",
            "outputs": [
                {
                    "internalType": "address",
                    "name": "",
                    "type": "address"
                }
            ],
            "stateMutability": "view",
            "type": "function"
        },
        {
            "inputs": [],
            "name": "renounceOwnership",
            "outputs": [],
            "stateMutability": "nonpayable",
            "type": "function"
        },
        {
            "inputs": [
                {
                    "internalType": "address",
                    "name": "newOwner",
                    "type": "address"
                }
            ],
            "name": "transferOwnership",
            "outputs": [],
            "stateMutability": "nonpayable",
            "type": "function"
        },
        {
            "inputs": [
                {
                    "internalType": "string",
                    "name": "id",
                    "type": "string"
                }
            ],
            "name": "unLockAssetReference",
            "outputs": [],
            "stateMutability": "nonpayable",
            "type": "function"
        }
    ],
    "bytecode": "608060405234801561001057600080fd5b50604051610d2f380380610d2f83398101604081905261002f916100ad565b6100383361005d565b600180546001600160a01b0319166001600160a01b03929092169190911790556100dd565b600080546001600160a01b038381166001600160a01b0319831681178455604051919092169283917f8be0079c531659141344cd1fd0a4f28419497f9722a3daafe3b4186f6b6457e09190a35050565b6000602082840312156100bf57600080fd5b81516001600160a01b03811681146100d657600080fd5b9392505050565b610c43806100ec6000396000f3fe608060405234801561001057600080fd5b50600436106100a95760003560e01c80638da5cb5b116100715780638da5cb5b146101195780638ef4529314610134578063ade3222b14610147578063b1fa25801461015a578063bc5482751461017a578063f2fde38b1461018d57600080fd5b80631ae4eb68146100ae57806340c10f19146100d657806363773a6c146100eb578063663bcc92146100fe578063715018a614610111575b600080fd5b6100c16100bc3660046108c7565b6101a0565b60405190151581526020015b60405180910390f35b6100e96100e4366004610925565b610204565b005b6100e96100f93660046108c7565b61030e565b6100e961010c36600461094f565b61039a565b6100e9610496565b6000546040516001600160a01b0390911681526020016100cd565b6100e96101423660046108c7565b6104cc565b6100e96101553660046108c7565b61051d565b61016d6101683660046108c7565b6105e8565b6040516100cd91906109d8565b6100c16101883660046108c7565b610716565b6100e961019b366004610a2b565b610745565b600080546001600160a01b031633146101d45760405162461bcd60e51b81526004016101cb90610a4d565b60405180910390fd5b600283836040516101e6929190610a82565b9081526040519081900360200190206001015460ff16905092915050565b6000546001600160a01b0316331461022e5760405162461bcd60e51b81526004016101cb90610a4d565b6001546040516001600160a01b03848116602483015260448201849052600092169060640160408051601f198184030181529181526020820180516001600160e01b03166340c10f1960e01b179052516102889190610a92565b6000604051808303816000865af19150503d80600081146102c5576040519150601f19603f3d011682016040523d82523d6000602084013e6102ca565b606091505b50509050806103095760405162461bcd60e51b815260206004820152600b60248201526a18d85b1b0819985a5b195960aa1b60448201526064016101cb565b505050565b6000546001600160a01b031633146103385760405162461bcd60e51b81526004016101cb90610a4d565b6103428282610716565b61034b57600080fd5b61035582826101a0565b1561035f57600080fd5b600160028383604051610373929190610a82565b908152604051908190036020019020600101805491151560ff199092169190911790555050565b6000546001600160a01b031633146103c45760405162461bcd60e51b81526004016101cb90610a4d565b8383600286866040516103d8929190610a82565b908152604051908190036020019020916103f3919083610b4c565b508160028585604051610407929190610a82565b908152602001604051809103902060020181905550600060028585604051610430929190610a82565b9081526040519081900360200181206001908101805493151560ff19909416939093179092556003906104669087908790610a82565b908152604051908190036020019020805491151560ff199092169190911790556104908183610204565b50505050565b6000546001600160a01b031633146104c05760405162461bcd60e51b81526004016101cb90610a4d565b6104ca60006107e0565b565b6000546001600160a01b031633146104f65760405162461bcd60e51b81526004016101cb90610a4d565b6105008282610716565b61050957600080fd5b600060028383604051610373929190610a82565b6000546001600160a01b031633146105475760405162461bcd60e51b81526004016101cb90610a4d565b6105518282610716565b61055a57600080fd5b61056482826101a0565b61056d57600080fd5b6002828260405161057f929190610a82565b908152604051908190036020019020600061059a8282610830565b5060018101805460ff19169055600060029091018190556040516003906105c49085908590610a82565b908152604051908190036020019020805491151560ff199092169190911790555050565b61060e604051806060016040528060608152602001600015158152602001600081525090565b6000546001600160a01b031633146106385760405162461bcd60e51b81526004016101cb90610a4d565b6002838360405161064a929190610a82565b908152602001604051809103902060405180606001604052908160008201805461067390610ac4565b80601f016020809104026020016040519081016040528092919081815260200182805461069f90610ac4565b80156106ec5780601f106106c1576101008083540402835291602001916106ec565b820191906000526020600020905b8154815290600101906020018083116106cf57829003601f168201915b5050509183525050600182015460ff16151560208201526002909101546040909101529392505050565b60006003838360405161072a929190610a82565b9081526040519081900360200190205460ff16905092915050565b6000546001600160a01b0316331461076f5760405162461bcd60e51b81526004016101cb90610a4d565b6001600160a01b0381166107d45760405162461bcd60e51b815260206004820152602660248201527f4f776e61626c653a206e6577206f776e657220697320746865207a65726f206160448201526564647265737360d01b60648201526084016101cb565b6107dd816107e0565b50565b600080546001600160a01b038381166001600160a01b0319831681178455604051919092169283917f8be0079c531659141344cd1fd0a4f28419497f9722a3daafe3b4186f6b6457e09190a35050565b50805461083c90610ac4565b6000825580601f1061084c575050565b601f0160209004906000526020600020908101906107dd91905b8082111561087a5760008155600101610866565b5090565b60008083601f84011261089057600080fd5b50813567ffffffffffffffff8111156108a857600080fd5b6020830191508360208285010111156108c057600080fd5b9250929050565b600080602083850312156108da57600080fd5b823567ffffffffffffffff8111156108f157600080fd5b6108fd8582860161087e565b90969095509350505050565b80356001600160a01b038116811461092057600080fd5b919050565b6000806040838503121561093857600080fd5b61094183610909565b946020939093013593505050565b6000806000806060858703121561096557600080fd5b843567ffffffffffffffff81111561097c57600080fd5b6109888782880161087e565b909550935050602085013591506109a160408601610909565b905092959194509250565b60005b838110156109c75781810151838201526020016109af565b838111156104905750506000910152565b6020815260008251606060208401528051806080850152610a008160a08601602085016109ac565b60208501511515604085810191909152909401516060840152505060a0601f909201601f1916010190565b600060208284031215610a3d57600080fd5b610a4682610909565b9392505050565b6020808252818101527f4f776e61626c653a2063616c6c6572206973206e6f7420746865206f776e6572604082015260600190565b8183823760009101908152919050565b60008251610aa48184602087016109ac565b9190910192915050565b634e487b7160e01b600052604160045260246000fd5b600181811c90821680610ad857607f821691505b602082108103610af857634e487b7160e01b600052602260045260246000fd5b50919050565b601f82111561030957600081815260208120601f850160051c81016020861015610b255750805b601f850160051c820191505b81811015610b4457828155600101610b31565b505050505050565b67ffffffffffffffff831115610b6457610b64610aae565b610b7883610b728354610ac4565b83610afe565b6000601f841160018114610bac5760008515610b945750838201355b600019600387901b1c1916600186901b178355610c06565b600083815260209020601f19861690835b82811015610bdd5786850135825560209485019460019092019101610bbd565b5086821015610bfa5760001960f88860031b161c19848701351681555b505060018560011b0183555b505050505056fea2646970667358221220ed8e5d2d15530ef4a99a667d7e8b3935d9cc586b086d4da341d1eb20d3459da964736f6c634300080f0033",
    "sourcePath": "/home/andre_9a/cactus/examples/cactus-example-cbdc-bridging-fabric-evm/src/solidity/asset-reference-contract/asset-reference-contract.sol",
    "compiler": {
        "name": "solc",
        "version": "0.8.15+commit.e14f2714"
    },
    "functionHashes": {
        "createAssetReference(string,uint256,address)": "663bcc92",
        "deleteAssetReference(string)": "ade3222b",
        "getAssetReference(string)": "b1fa2580",
        "isAssetLocked(string)": "1ae4eb68",
        "isPresent(string)": "bc548275",
        "lockAssetReference(string)": "63773a6c",
        "mint(address,uint256)": "40c10f19",
        "owner()": "8da5cb5b",
        "renounceOwnership()": "715018a6",
        "transferOwnership(address)": "f2fde38b",
        "unLockAssetReference(string)": "8ef45293"
    },
    "gasEstimates": {
        "creation": {
            "codeDepositCost": "627800",
            "executionCost": "infinite",
            "totalCost": "infinite"
        },
        "external": {
            "createAssetReference(string,uint256,address)": "infinite",
            "deleteAssetReference(string)": "infinite",
            "getAssetReference(string)": "infinite",
            "isAssetLocked(string)": "infinite",
            "isPresent(string)": "infinite",
            "lockAssetReference(string)": "infinite",
            "mint(address,uint256)": "infinite",
            "owner()": "2301",
            "renounceOwnership()": "28203",
            "transferOwnership(address)": "28419",
            "unLockAssetReference(string)": "infinite"
        }
    }
}