{
    "contractName": "AssetReferenceContract",
    "abi": [
        {
            "inputs": [
                {
                    "internalType": "address",
                    "name": "_cbdc_contract",
                    "type": "address"
                }
            ],
            "stateMutability": "nonpayable",
            "type": "constructor"
        },
        {
            "anonymous": false,
            "inputs": [
                {
                    "indexed": true,
                    "internalType": "address",
                    "name": "previousOwner",
                    "type": "address"
                },
                {
                    "indexed": true,
                    "internalType": "address",
                    "name": "newOwner",
                    "type": "address"
                }
            ],
            "name": "OwnershipTransferred",
            "type": "event"
        },
        {
            "inputs": [
                {
                    "internalType": "string",
                    "name": "id",
                    "type": "string"
                },
                {
                    "internalType": "uint256",
                    "name": "numberTokens",
                    "type": "uint256"
                },
                {
                    "internalType": "address",
                    "name": "recipient",
                    "type": "address"
                }
            ],
            "name": "createAssetReference",
            "outputs": [],
            "stateMutability": "nonpayable",
            "type": "function"
        },
        {
            "inputs": [
                {
                    "internalType": "string",
                    "name": "id",
                    "type": "string"
                }
            ],
            "name": "deleteAssetReference",
            "outputs": [],
            "stateMutability": "nonpayable",
            "type": "function"
        },
        {
            "inputs": [
                {
                    "internalType": "string",
                    "name": "id",
                    "type": "string"
                }
            ],
            "name": "getAssetReference",
            "outputs": [
                {
                    "components": [
                        {
                            "internalType": "string",
                            "name": "id",
                            "type": "string"
                        },
                        {
                            "internalType": "bool",
                            "name": "isLocked",
                            "type": "bool"
                        },
                        {
                            "internalType": "uint256",
                            "name": "numberTokens",
                            "type": "uint256"
                        }
                    ],
                    "internalType": "struct AssetReference",
                    "name": "",
                    "type": "tuple"
                }
            ],
            "stateMutability": "view",
            "type": "function"
        },
        {
            "inputs": [
                {
                    "internalType": "string",
                    "name": "id",
                    "type": "string"
                }
            ],
            "name": "isAssetLocked",
            "outputs": [
                {
                    "internalType": "bool",
                    "name": "",
                    "type": "bool"
                }
            ],
            "stateMutability": "view",
            "type": "function"
        },
        {
            "inputs": [
                {
                    "internalType": "string",
                    "name": "id",
                    "type": "string"
                }
            ],
            "name": "isPresent",
            "outputs": [
                {
                    "internalType": "bool",
                    "name": "",
                    "type": "bool"
                }
            ],
            "stateMutability": "view",
            "type": "function"
        },
        {
            "inputs": [
                {
                    "internalType": "string",
                    "name": "id",
                    "type": "string"
                }
            ],
            "name": "lockAssetReference",
            "outputs": [],
            "stateMutability": "nonpayable",
            "type": "function"
        },
        {
            "inputs": [
                {
                    "internalType": "address",
                    "name": "account",
                    "type": "address"
                },
                {
                    "internalType": "uint256",
                    "name": "amount",
                    "type": "uint256"
                }
            ],
            "name": "mint",
            "outputs": [],
            "stateMutability": "nonpayable",
            "type": "function"
        },
        {
            "inputs": [],
            "name": "owner",
            "outputs": [
                {
                    "internalType": "address",
                    "name": "",
                    "type": "address"
                }
            ],
            "stateMutability": "view",
            "type": "function"
        },
        {
            "inputs": [],
            "name": "renounceOwnership",
            "outputs": [],
            "stateMutability": "nonpayable",
            "type": "function"
        },
        {
            "inputs": [
                {
                    "internalType": "address",
                    "name": "newOwner",
                    "type": "address"
                }
            ],
            "name": "transferOwnership",
            "outputs": [],
            "stateMutability": "nonpayable",
            "type": "function"
        },
        {
            "inputs": [
                {
                    "internalType": "string",
                    "name": "id",
                    "type": "string"
                }
            ],
            "name": "unLockAssetReference",
            "outputs": [],
            "stateMutability": "nonpayable",
            "type": "function"
        }
    ],
    "bytecode": "608060405234801561001057600080fd5b50604051610da2380380610da283398101604081905261002f916100ad565b6100383361005d565b600180546001600160a01b0319166001600160a01b03929092169190911790556100dd565b600080546001600160a01b038381166001600160a01b0319831681178455604051919092169283917f8be0079c531659141344cd1fd0a4f28419497f9722a3daafe3b4186f6b6457e09190a35050565b6000602082840312156100bf57600080fd5b81516001600160a01b03811681146100d657600080fd5b9392505050565b610cb6806100ec6000396000f3fe608060405234801561001057600080fd5b50600436106100a95760003560e01c80638da5cb5b116100715780638da5cb5b146101195780638ef4529314610134578063ade3222b14610147578063b1fa25801461015a578063bc5482751461017a578063f2fde38b1461018d57600080fd5b80631ae4eb68146100ae57806340c10f19146100d657806363773a6c146100eb578063663bcc92146100fe578063715018a614610111575b600080fd5b6100c16100bc36600461093a565b6101a0565b60405190151581526020015b60405180910390f35b6100e96100e4366004610998565b610204565b005b6100e96100f936600461093a565b61030e565b6100e961010c3660046109c2565b61039a565b6100e9610497565b6000546040516001600160a01b0390911681526020016100cd565b6100e961014236600461093a565b6104cd565b6100e961015536600461093a565b610566565b61016d61016836600461093a565b610632565b6040516100cd9190610a4b565b6100c161018836600461093a565b610760565b6100e961019b366004610a9e565b6107b8565b600080546001600160a01b031633146101d45760405162461bcd60e51b81526004016101cb90610ac0565b60405180910390fd5b600283836040516101e6929190610af5565b9081526040519081900360200190206001015460ff16905092915050565b6000546001600160a01b0316331461022e5760405162461bcd60e51b81526004016101cb90610ac0565b6001546040516001600160a01b03848116602483015260448201849052600092169060640160408051601f198184030181529181526020820180516001600160e01b03166340c10f1960e01b179052516102889190610b05565b6000604051808303816000865af19150503d80600081146102c5576040519150601f19603f3d011682016040523d82523d6000602084013e6102ca565b606091505b50509050806103095760405162461bcd60e51b815260206004820152600b60248201526a18d85b1b0819985a5b195960aa1b60448201526064016101cb565b505050565b6000546001600160a01b031633146103385760405162461bcd60e51b81526004016101cb90610ac0565b6103428282610760565b61034b57600080fd5b61035582826101a0565b1561035f57600080fd5b600160028383604051610373929190610af5565b908152604051908190036020019020600101805491151560ff199092169190911790555050565b6000546001600160a01b031633146103c45760405162461bcd60e51b81526004016101cb90610ac0565b8383600286866040516103d8929190610af5565b908152604051908190036020019020916103f3919083610bbf565b50600060028585604051610408929190610af5565b908152604051908190036020018120600101805492151560ff1990931692909217909155829060029061043e9087908790610af5565b908152602001604051809103902060020181905550600160038585604051610467929190610af5565b908152604051908190036020019020805491151560ff199092169190911790556104918183610204565b50505050565b6000546001600160a01b031633146104c15760405162461bcd60e51b81526004016101cb90610ac0565b6104cb6000610853565b565b6000546001600160a01b031633146104f75760405162461bcd60e51b81526004016101cb90610ac0565b60006003838360405161050b929190610af5565b9081526040519081900360200190205460ff1690508061052a57600080fd5b60006002848460405161053e929190610af5565b908152604051908190036020019020600101805491151560ff19909216919091179055505050565b6000546001600160a01b031633146105905760405162461bcd60e51b81526004016101cb90610ac0565b61059a8282610760565b6105a357600080fd5b6105ad82826101a0565b156105b757600080fd5b600282826040516105c9929190610af5565b90815260405190819003602001902060006105e482826108a3565b5060018101805460ff191690556000600290910181905560405160039061060e9085908590610af5565b908152604051908190036020019020805491151560ff199092169190911790555050565b610658604051806060016040528060608152602001600015158152602001600081525090565b6000546001600160a01b031633146106825760405162461bcd60e51b81526004016101cb90610ac0565b60028383604051610694929190610af5565b90815260200160405180910390206040518060600160405290816000820180546106bd90610b37565b80601f01602080910402602001604051908101604052809291908181526020018280546106e990610b37565b80156107365780601f1061070b57610100808354040283529160200191610736565b820191906000526020600020905b81548152906001019060200180831161071957829003601f168201915b5050509183525050600182015460ff16151560208201526002909101546040909101529392505050565b600080546001600160a01b0316331461078b5760405162461bcd60e51b81526004016101cb90610ac0565b6003838360405161079d929190610af5565b9081526040519081900360200190205460ff16905092915050565b6000546001600160a01b031633146107e25760405162461bcd60e51b81526004016101cb90610ac0565b6001600160a01b0381166108475760405162461bcd60e51b815260206004820152602660248201527f4f776e61626c653a206e6577206f776e657220697320746865207a65726f206160448201526564647265737360d01b60648201526084016101cb565b61085081610853565b50565b600080546001600160a01b038381166001600160a01b0319831681178455604051919092169283917f8be0079c531659141344cd1fd0a4f28419497f9722a3daafe3b4186f6b6457e09190a35050565b5080546108af90610b37565b6000825580601f106108bf575050565b601f01602090049060005260206000209081019061085091905b808211156108ed57600081556001016108d9565b5090565b60008083601f84011261090357600080fd5b50813567ffffffffffffffff81111561091b57600080fd5b60208301915083602082850101111561093357600080fd5b9250929050565b6000806020838503121561094d57600080fd5b823567ffffffffffffffff81111561096457600080fd5b610970858286016108f1565b90969095509350505050565b80356001600160a01b038116811461099357600080fd5b919050565b600080604083850312156109ab57600080fd5b6109b48361097c565b946020939093013593505050565b600080600080606085870312156109d857600080fd5b843567ffffffffffffffff8111156109ef57600080fd5b6109fb878288016108f1565b90955093505060208501359150610a146040860161097c565b905092959194509250565b60005b83811015610a3a578181015183820152602001610a22565b838111156104915750506000910152565b6020815260008251606060208401528051806080850152610a738160a0860160208501610a1f565b60208501511515604085810191909152909401516060840152505060a0601f909201601f1916010190565b600060208284031215610ab057600080fd5b610ab98261097c565b9392505050565b6020808252818101527f4f776e61626c653a2063616c6c6572206973206e6f7420746865206f776e6572604082015260600190565b8183823760009101908152919050565b60008251610b17818460208701610a1f565b9190910192915050565b634e487b7160e01b600052604160045260246000fd5b600181811c90821680610b4b57607f821691505b602082108103610b6b57634e487b7160e01b600052602260045260246000fd5b50919050565b601f82111561030957600081815260208120601f850160051c81016020861015610b985750805b601f850160051c820191505b81811015610bb757828155600101610ba4565b505050505050565b67ffffffffffffffff831115610bd757610bd7610b21565b610beb83610be58354610b37565b83610b71565b6000601f841160018114610c1f5760008515610c075750838201355b600019600387901b1c1916600186901b178355610c79565b600083815260209020601f19861690835b82811015610c505786850135825560209485019460019092019101610c30565b5086821015610c6d5760001960f88860031b161c19848701351681555b505060018560011b0183555b505050505056fea264697066735822122041534cd50ed2a460ea58cb8206fbd6f13fa1612952c1203ec5e31197a2f0fd5564736f6c634300080f0033",
    "sourcePath": "/home/andre_9a/cactus/examples/cactus-example-cbdc-bridging-fabric-evm/src/solidity/asset-reference-contract/asset-reference-contract.sol",
    "compiler": {
        "name": "solc",
        "version": "0.8.15+commit.e14f2714"
    },
    "functionHashes": {
        "createAssetReference(string,uint256,address)": "663bcc92",
        "deleteAssetReference(string)": "ade3222b",
        "getAssetReference(string)": "b1fa2580",
        "isAssetLocked(string)": "1ae4eb68",
        "isPresent(string)": "bc548275",
        "lockAssetReference(string)": "63773a6c",
        "mint(address,uint256)": "40c10f19",
        "owner()": "8da5cb5b",
        "renounceOwnership()": "715018a6",
        "transferOwnership(address)": "f2fde38b",
        "unLockAssetReference(string)": "8ef45293"
    },
    "gasEstimates": {
        "creation": {
            "codeDepositCost": "650800",
            "executionCost": "infinite",
            "totalCost": "infinite"
        },
        "external": {
            "createAssetReference(string,uint256,address)": "infinite",
            "deleteAssetReference(string)": "infinite",
            "getAssetReference(string)": "infinite",
            "isAssetLocked(string)": "infinite",
            "isPresent(string)": "infinite",
            "lockAssetReference(string)": "infinite",
            "mint(address,uint256)": "infinite",
            "owner()": "2301",
            "renounceOwnership()": "28203",
            "transferOwnership(address)": "28419",
            "unLockAssetReference(string)": "infinite"
        }
    }
}