{
    "contractName": "AssetReferenceContract",
    "abi": [
        {
            "inputs": [
                {
                    "internalType": "address",
                    "name": "account",
                    "type": "address"
                }
            ],
            "stateMutability": "nonpayable",
            "type": "constructor"
        },
        {
            "anonymous": false,
            "inputs": [
                {
                    "indexed": true,
                    "internalType": "address",
                    "name": "newOwner",
                    "type": "address"
                }
            ],
            "name": "OwnershipAdded",
            "type": "event"
        },
        {
            "anonymous": false,
            "inputs": [
                {
                    "indexed": true,
                    "internalType": "address",
                    "name": "previousOwner",
                    "type": "address"
                }
            ],
            "name": "OwnershipRemoved",
            "type": "event"
        },
        {
            "inputs": [
                {
                    "internalType": "address",
                    "name": "newOwner",
                    "type": "address"
                }
            ],
            "name": "addOwner",
            "outputs": [],
            "stateMutability": "nonpayable",
            "type": "function"
        },
        {
            "inputs": [
                {
                    "internalType": "address",
                    "name": "account",
                    "type": "address"
                },
                {
                    "internalType": "uint256",
                    "name": "amount",
                    "type": "uint256"
                }
            ],
            "name": "burn",
            "outputs": [],
            "stateMutability": "nonpayable",
            "type": "function"
        },
        {
            "inputs": [
                {
                    "internalType": "string",
                    "name": "id",
                    "type": "string"
                },
                {
                    "internalType": "uint256",
                    "name": "amount",
                    "type": "uint256"
                },
                {
                    "internalType": "address",
                    "name": "recipient",
                    "type": "address"
                }
            ],
            "name": "createAssetReference",
            "outputs": [],
            "stateMutability": "nonpayable",
            "type": "function"
        },
        {
            "inputs": [
                {
                    "internalType": "string",
                    "name": "id",
                    "type": "string"
                }
            ],
            "name": "deleteAssetReference",
            "outputs": [],
            "stateMutability": "nonpayable",
            "type": "function"
        },
        {
            "inputs": [
                {
                    "internalType": "string",
                    "name": "id",
                    "type": "string"
                }
            ],
            "name": "getAssetReference",
            "outputs": [
                {
                    "components": [
                        {
                            "internalType": "string",
                            "name": "id",
                            "type": "string"
                        },
                        {
                            "internalType": "bool",
                            "name": "isLocked",
                            "type": "bool"
                        },
                        {
                            "internalType": "uint256",
                            "name": "amount",
                            "type": "uint256"
                        },
                        {
                            "internalType": "address",
                            "name": "recipient",
                            "type": "address"
                        }
                    ],
                    "internalType": "struct AssetReference",
                    "name": "",
                    "type": "tuple"
                }
            ],
            "stateMutability": "view",
            "type": "function"
        },
        {
            "inputs": [
                {
                    "internalType": "string",
                    "name": "id",
                    "type": "string"
                }
            ],
            "name": "isAssetLocked",
            "outputs": [
                {
                    "internalType": "bool",
                    "name": "",
                    "type": "bool"
                }
            ],
            "stateMutability": "view",
            "type": "function"
        },
        {
            "inputs": [
                {
                    "internalType": "string",
                    "name": "id",
                    "type": "string"
                }
            ],
            "name": "isPresent",
            "outputs": [
                {
                    "internalType": "bool",
                    "name": "",
                    "type": "bool"
                }
            ],
            "stateMutability": "view",
            "type": "function"
        },
        {
            "inputs": [
                {
                    "internalType": "string",
                    "name": "id",
                    "type": "string"
                }
            ],
            "name": "lockAssetReference",
            "outputs": [],
            "stateMutability": "nonpayable",
            "type": "function"
        },
        {
            "inputs": [
                {
                    "internalType": "string",
                    "name": "ID1",
                    "type": "string"
                },
                {
                    "internalType": "string",
                    "name": "ID2",
                    "type": "string"
                }
            ],
            "name": "mergeAssetReferences",
            "outputs": [],
            "stateMutability": "nonpayable",
            "type": "function"
        },
        {
            "inputs": [
                {
                    "internalType": "address",
                    "name": "account",
                    "type": "address"
                },
                {
                    "internalType": "uint256",
                    "name": "amount",
                    "type": "uint256"
                }
            ],
            "name": "mint",
            "outputs": [],
            "stateMutability": "nonpayable",
            "type": "function"
        },
        {
            "inputs": [],
            "name": "owners",
            "outputs": [
                {
                    "internalType": "address[]",
                    "name": "",
                    "type": "address[]"
                }
            ],
            "stateMutability": "view",
            "type": "function"
        },
        {
            "inputs": [
                {
                    "internalType": "address",
                    "name": "oldOwner",
                    "type": "address"
                }
            ],
            "name": "removeOwner",
            "outputs": [],
            "stateMutability": "nonpayable",
            "type": "function"
        },
        {
            "inputs": [
                {
                    "internalType": "string",
                    "name": "oldID",
                    "type": "string"
                },
                {
                    "internalType": "uint256",
                    "name": "amount",
                    "type": "uint256"
                },
                {
                    "internalType": "string",
                    "name": "newID",
                    "type": "string"
                }
            ],
            "name": "splitAssetReference",
            "outputs": [],
            "stateMutability": "nonpayable",
            "type": "function"
        },
        {
            "inputs": [
                {
                    "internalType": "string",
                    "name": "id",
                    "type": "string"
                }
            ],
            "name": "unLockAssetReference",
            "outputs": [],
            "stateMutability": "nonpayable",
            "type": "function"
        }
    ],
    "bytecode": "608060405234801561001057600080fd5b5060405161177838038061177883398101604081905261002f916100d3565b6100383361005d565b600180546001600160a01b0319166001600160a01b0392909216919091179055610103565b600080546001810182558180527f290decd9548b62a8d60345a988386fc84ba6bc95484008f6362f93160ef3e5630180546001600160a01b0319166001600160a01b03841690811790915560405190917fb4cd6c6140e1db788f68710738b06ef4d0df6a884a06a088433a4c2f5e036e7c91a250565b6000602082840312156100e557600080fd5b81516001600160a01b03811681146100fc57600080fd5b9392505050565b611666806101126000396000f3fe608060405234801561001057600080fd5b50600436106100ea5760003560e01c80637065cb481161008c578063ade3222b11610066578063ade3222b146101c4578063affe39c1146101d7578063b1fa2580146101ec578063bc5482751461020c57600080fd5b80637065cb481461018b5780638ef452931461019e5780639dc29fac146101b157600080fd5b806341283284116100c8578063412832841461013f57806354c2ec531461015257806363773a6c14610165578063663bcc921461017857600080fd5b8063173825d9146100ef5780631ae4eb681461010457806340c10f191461012c575b600080fd5b6101026100fd3660046110ae565b61021f565b005b610117610112366004611119565b61029d565b60405190151581526020015b60405180910390f35b61010261013a36600461115b565b6102d0565b61010261014d366004611185565b6103bd565b6101026101603660046111ff565b6105a3565b610102610173366004611119565b61074d565b61010261018636600461126b565b61081b565b6101026101993660046110ae565b61093e565b6101026101ac366004611119565b6109b4565b6101026101bf36600461115b565b6109f6565b6101026101d2366004611119565b610ade565b6101df610c48565b60405161012391906112c8565b6101ff6101fa366004611119565b610caa565b6040516101239190611339565b61011761021a366004611119565b610dbd565b610227610dec565b6001600160a01b0381166102915760405162461bcd60e51b815260206004820152602660248201527f4f776e61626c653a206f6c64206f776e657220697320746865207a65726f206160448201526564647265737360d01b60648201526084015b60405180910390fd5b61029a81610e9b565b50565b6000600283836040516102b19291906113a1565b9081526040519081900360200190206001015460ff1690505b92915050565b6102d8610dec565b6001546040516001600160a01b03848116602483015260448201849052600092169060640160408051601f198184030181529181526020820180516001600160e01b03166340c10f1960e01b1790525161033291906113b1565b6000604051808303816000865af19150503d806000811461036f576040519150601f19603f3d011682016040523d82523d6000602084013e610374565b606091505b50509050806103b85760405162461bcd60e51b815260206004820152601060248201526f1b5a5b9d0818d85b1b0819985a5b195960821b6044820152606401610288565b505050565b6103c5610dec565b6103cf8585610dbd565b6103eb5760405162461bcd60e51b8152600401610288906113cd565b6103f5858561029d565b156104125760405162461bcd60e51b81526004016102889061140f565b8181600284846040516104269291906113a1565b908152604051908190036020019020916104419190836114ee565b5082600286866040516104559291906113a1565b90815260200160405180910390206002015461047191906115c5565b600283836040516104839291906113a1565b9081526020016040518091039020600201819055506000600283836040516104ac9291906113a1565b908152604051908190036020018120600101805492151560ff19909316929092179091556002906104e090879087906113a1565b908152604051908190036020018120600301546001600160a01b03169060029061050d90859085906113a1565b908152602001604051809103902060030160006101000a8154816001600160a01b0302191690836001600160a01b031602179055506001600383836040516105569291906113a1565b908152604051908190036020018120805492151560ff1990931692909217909155839060029061058990889088906113a1565b908152604051908190036020019020600201555050505050565b6105ab610dec565b6105b58484610dbd565b6105d15760405162461bcd60e51b8152600401610288906113cd565b6105db848461029d565b156105f85760405162461bcd60e51b81526004016102889061140f565b6106028282610dbd565b61061e5760405162461bcd60e51b8152600401610288906113cd565b610628828261029d565b156106455760405162461bcd60e51b81526004016102889061140f565b600282826040516106579291906113a1565b9081526020016040518091039020600201546002858560405161067b9291906113a1565b90815260200160405180910390206002015461069791906115d8565b600285856040516106a99291906113a1565b908152602001604051809103902060020181905550600282826040516106d09291906113a1565b90815260405190819003602001902060006106eb8282611044565b5060018101805460ff19169055600060028201819055600391820180546001600160a01b031916905560405190919061072790859085906113a1565b908152604051908190036020019020805491151560ff1990921691909117905550505050565b610755610dec565b61075f8282610dbd565b61077b5760405162461bcd60e51b8152600401610288906113cd565b610785828261029d565b156107e05760405162461bcd60e51b815260206004820152602560248201527f546865206173736574207265666572656e636520697320616c7265616479206c6044820152641bd8dad95960da1b6064820152608401610288565b6001600283836040516107f49291906113a1565b908152604051908190036020019020600101805491151560ff199092169190911790555050565b610823610dec565b8383600286866040516108379291906113a1565b908152604051908190036020019020916108529190836114ee565b5081600285856040516108669291906113a1565b90815260200160405180910390206002018190555060006002858560405161088f9291906113a1565b908152604051908190036020018120600101805492151560ff199093169290921790915581906002906108c590879087906113a1565b908152602001604051809103902060030160006101000a8154816001600160a01b0302191690836001600160a01b0316021790555060016003858560405161090e9291906113a1565b908152604051908190036020019020805491151560ff1990921691909117905561093881836102d0565b50505050565b610946610dec565b6001600160a01b0381166109ab5760405162461bcd60e51b815260206004820152602660248201527f4f776e61626c653a206e6577206f776e657220697320746865207a65726f206160448201526564647265737360d01b6064820152608401610288565b61029a81610fce565b6109bc610dec565b6109c68282610dbd565b6109e25760405162461bcd60e51b8152600401610288906113cd565b6000600283836040516107f49291906113a1565b6109fe610dec565b6001546040516001600160a01b03848116602483015260448201849052600092169060640160408051601f198184030181529181526020820180516001600160e01b0316632770a7eb60e21b17905251610a5891906113b1565b6000604051808303816000865af19150503d8060008114610a95576040519150601f19603f3d011682016040523d82523d6000602084013e610a9a565b606091505b50509050806103b85760405162461bcd60e51b815260206004820152601060248201526f189d5c9b8818d85b1b0819985a5b195960821b6044820152606401610288565b610ae6610dec565b610af08282610dbd565b610b0c5760405162461bcd60e51b8152600401610288906113cd565b610b16828261029d565b610b625760405162461bcd60e51b815260206004820152601d60248201527f546865206173736574207265666572656e6365206973206c6f636b65640000006044820152606401610288565b610bbb60028383604051610b779291906113a1565b908152604051908190036020018120600301546001600160a01b031690600290610ba490869086906113a1565b9081526020016040518091039020600201546109f6565b60028282604051610bcd9291906113a1565b9081526040519081900360200190206000610be88282611044565b5060018101805460ff19169055600060028201819055600391820180546001600160a01b0319169055604051909190610c2490859085906113a1565b908152604051908190036020019020805491151560ff199092169190911790555050565b60606000805480602002602001604051908101604052809291908181526020018280548015610ca057602002820191906000526020600020905b81546001600160a01b03168152600190910190602001808311610c82575b5050505050905090565b604080516080810182526060808252600060208301819052828401819052908201529051600290610cde90859085906113a1565b9081526020016040518091039020604051806080016040529081600082018054610d0790611466565b80601f0160208091040260200160405190810160405280929190818152602001828054610d3390611466565b8015610d805780601f10610d5557610100808354040283529160200191610d80565b820191906000526020600020905b815481529060010190602001808311610d6357829003601f168201915b5050509183525050600182015460ff1615156020820152600282015460408201526003909101546001600160a01b03166060909101529392505050565b600060038383604051610dd19291906113a1565b9081526040519081900360200190205460ff16905092915050565b6000805b600054811015610e4857336001600160a01b031660008281548110610e1757610e176115eb565b6000918252602090912001546001600160a01b031603610e3657600191505b80610e4081611601565b915050610df0565b5060018115151461029a5760405162461bcd60e51b815260206004820152601f60248201527f4f776e61626c653a2063616c6c6572206973206e6f7420616e206f776e6572006044820152606401610288565b60005b600054811015610f9657816001600160a01b031660008281548110610ec557610ec56115eb565b6000918252602090912001546001600160a01b031603610f845760008054610eef906001906115c5565b81548110610eff57610eff6115eb565b600091825260208220015481546001600160a01b03909116919083908110610f2957610f296115eb565b6000918252602082200180546001600160a01b0319166001600160a01b039390931692909217909155805480610f6157610f6161161a565b600082815260209020810160001990810180546001600160a01b03191690550190555b80610f8e81611601565b915050610e9e565b506040516001600160a01b038216907f86d076ecf250a6d90a67a7c75317f44709d5001395ecf1df6d9dad5278f1e68190600090a250565b600080546001810182558180527f290decd9548b62a8d60345a988386fc84ba6bc95484008f6362f93160ef3e5630180546001600160a01b0319166001600160a01b03841690811790915560405190917fb4cd6c6140e1db788f68710738b06ef4d0df6a884a06a088433a4c2f5e036e7c91a250565b50805461105090611466565b6000825580601f10611060575050565b601f01602090049060005260206000209081019061029a91905b8082111561108e576000815560010161107a565b5090565b80356001600160a01b03811681146110a957600080fd5b919050565b6000602082840312156110c057600080fd5b6110c982611092565b9392505050565b60008083601f8401126110e257600080fd5b50813567ffffffffffffffff8111156110fa57600080fd5b60208301915083602082850101111561111257600080fd5b9250929050565b6000806020838503121561112c57600080fd5b823567ffffffffffffffff81111561114357600080fd5b61114f858286016110d0565b90969095509350505050565b6000806040838503121561116e57600080fd5b61117783611092565b946020939093013593505050565b60008060008060006060868803121561119d57600080fd5b853567ffffffffffffffff808211156111b557600080fd5b6111c189838a016110d0565b90975095506020880135945060408801359150808211156111e157600080fd5b506111ee888289016110d0565b969995985093965092949392505050565b6000806000806040858703121561121557600080fd5b843567ffffffffffffffff8082111561122d57600080fd5b611239888389016110d0565b9096509450602087013591508082111561125257600080fd5b5061125f878288016110d0565b95989497509550505050565b6000806000806060858703121561128157600080fd5b843567ffffffffffffffff81111561129857600080fd5b6112a4878288016110d0565b909550935050602085013591506112bd60408601611092565b905092959194509250565b6020808252825182820181905260009190848201906040850190845b818110156113095783516001600160a01b0316835292840192918401916001016112e4565b50909695505050505050565b60005b83811015611330578181015183820152602001611318565b50506000910152565b60208152600082516080602084015280518060a08501526113618160c0860160208501611315565b60208501511515604085810191909152850151606080860191909152909401516001600160a01b03166080840152505060c0601f909201601f1916010190565b8183823760009101908152919050565b600082516113c3818460208701611315565b9190910192915050565b60208082526022908201527f546865206173736574207265666572656e636520646f6573206e6f74206578696040820152611cdd60f21b606082015260800190565b60208082526021908201527f546865206173736574207265666572656e6365206973206e6f74206c6f636b656040820152601960fa1b606082015260800190565b634e487b7160e01b600052604160045260246000fd5b600181811c9082168061147a57607f821691505b60208210810361149a57634e487b7160e01b600052602260045260246000fd5b50919050565b601f8211156103b857600081815260208120601f850160051c810160208610156114c75750805b601f850160051c820191505b818110156114e6578281556001016114d3565b505050505050565b67ffffffffffffffff83111561150657611506611450565b61151a836115148354611466565b836114a0565b6000601f84116001811461154e57600085156115365750838201355b600019600387901b1c1916600186901b1783556115a8565b600083815260209020601f19861690835b8281101561157f578685013582556020948501946001909201910161155f565b508682101561159c5760001960f88860031b161c19848701351681555b505060018560011b0183555b5050505050565b634e487b7160e01b600052601160045260246000fd5b818103818111156102ca576102ca6115af565b808201808211156102ca576102ca6115af565b634e487b7160e01b600052603260045260246000fd5b600060018201611613576116136115af565b5060010190565b634e487b7160e01b600052603160045260246000fdfea264697066735822122052d428defc61a7c9cd52c952578507e01451059da26fe1c4f240e963a43fefda64736f6c63430008100033",
    "sourcePath": "/home/andre_9a/cactus/examples/cactus-example-cbdc-bridging-fabric-evm/src/solidity/asset-reference-contract/asset-reference-contract.sol",
    "compiler": {
        "name": "solc",
        "version": "0.8.16+commit.07a7930e"
    },
    "functionHashes": {
        "addOwner(address)": "7065cb48",
        "burn(address,uint256)": "9dc29fac",
        "createAssetReference(string,uint256,address)": "663bcc92",
        "deleteAssetReference(string)": "ade3222b",
        "getAssetReference(string)": "b1fa2580",
        "isAssetLocked(string)": "1ae4eb68",
        "isPresent(string)": "bc548275",
        "lockAssetReference(string)": "63773a6c",
        "mergeAssetReferences(string,string)": "54c2ec53",
        "mint(address,uint256)": "40c10f19",
        "owners()": "affe39c1",
        "removeOwner(address)": "173825d9",
        "splitAssetReference(string,uint256,string)": "41283284",
        "unLockAssetReference(string)": "8ef45293"
    },
    "gasEstimates": {
        "creation": {
            "codeDepositCost": "1146800",
            "executionCost": "infinite",
            "totalCost": "infinite"
        },
        "external": {
            "addOwner(address)": "infinite",
            "burn(address,uint256)": "infinite",
            "createAssetReference(string,uint256,address)": "infinite",
            "deleteAssetReference(string)": "infinite",
            "getAssetReference(string)": "infinite",
            "isAssetLocked(string)": "infinite",
            "isPresent(string)": "infinite",
            "lockAssetReference(string)": "infinite",
            "mergeAssetReferences(string,string)": "infinite",
            "mint(address,uint256)": "infinite",
            "owners()": "infinite",
            "removeOwner(address)": "infinite",
            "splitAssetReference(string,uint256,string)": "infinite",
            "unLockAssetReference(string)": "infinite"
        }
    }
}