{
    "contractName": "AssetReferenceContract",
    "abi": [
        {
            "inputs": [
                {
                    "internalType": "address",
                    "name": "account",
                    "type": "address"
                }
            ],
            "stateMutability": "nonpayable",
            "type": "constructor"
        },
        {
            "anonymous": false,
            "inputs": [
                {
                    "indexed": true,
                    "internalType": "address",
                    "name": "previousOwner",
                    "type": "address"
                },
                {
                    "indexed": true,
                    "internalType": "address",
                    "name": "newOwner",
                    "type": "address"
                }
            ],
            "name": "OwnershipTransferred",
            "type": "event"
        },
        {
            "inputs": [
                {
                    "internalType": "address",
                    "name": "account",
                    "type": "address"
                },
                {
                    "internalType": "uint256",
                    "name": "amount",
                    "type": "uint256"
                }
            ],
            "name": "burn",
            "outputs": [],
            "stateMutability": "nonpayable",
            "type": "function"
        },
        {
            "inputs": [
                {
                    "internalType": "string",
                    "name": "id",
                    "type": "string"
                },
                {
                    "internalType": "uint256",
                    "name": "amount",
                    "type": "uint256"
                },
                {
                    "internalType": "address",
                    "name": "recipient",
                    "type": "address"
                }
            ],
            "name": "createAssetReference",
            "outputs": [],
            "stateMutability": "nonpayable",
            "type": "function"
        },
        {
            "inputs": [
                {
                    "internalType": "string",
                    "name": "id",
                    "type": "string"
                }
            ],
            "name": "deleteAssetReference",
            "outputs": [],
            "stateMutability": "nonpayable",
            "type": "function"
        },
        {
            "inputs": [
                {
                    "internalType": "string",
                    "name": "id",
                    "type": "string"
                }
            ],
            "name": "getAssetReference",
            "outputs": [
                {
                    "components": [
                        {
                            "internalType": "string",
                            "name": "id",
                            "type": "string"
                        },
                        {
                            "internalType": "bool",
                            "name": "isLocked",
                            "type": "bool"
                        },
                        {
                            "internalType": "uint256",
                            "name": "amount",
                            "type": "uint256"
                        },
                        {
                            "internalType": "address",
                            "name": "recipient",
                            "type": "address"
                        }
                    ],
                    "internalType": "struct AssetReference",
                    "name": "",
                    "type": "tuple"
                }
            ],
            "stateMutability": "view",
            "type": "function"
        },
        {
            "inputs": [
                {
                    "internalType": "string",
                    "name": "id",
                    "type": "string"
                }
            ],
            "name": "isAssetLocked",
            "outputs": [
                {
                    "internalType": "bool",
                    "name": "",
                    "type": "bool"
                }
            ],
            "stateMutability": "view",
            "type": "function"
        },
        {
            "inputs": [
                {
                    "internalType": "string",
                    "name": "id",
                    "type": "string"
                }
            ],
            "name": "isPresent",
            "outputs": [
                {
                    "internalType": "bool",
                    "name": "",
                    "type": "bool"
                }
            ],
            "stateMutability": "view",
            "type": "function"
        },
        {
            "inputs": [
                {
                    "internalType": "string",
                    "name": "id",
                    "type": "string"
                }
            ],
            "name": "lockAssetReference",
            "outputs": [],
            "stateMutability": "nonpayable",
            "type": "function"
        },
        {
            "inputs": [
                {
                    "internalType": "address",
                    "name": "account",
                    "type": "address"
                },
                {
                    "internalType": "uint256",
                    "name": "amount",
                    "type": "uint256"
                }
            ],
            "name": "mint",
            "outputs": [],
            "stateMutability": "nonpayable",
            "type": "function"
        },
        {
            "inputs": [],
            "name": "owner",
            "outputs": [
                {
                    "internalType": "address",
                    "name": "",
                    "type": "address"
                }
            ],
            "stateMutability": "view",
            "type": "function"
        },
        {
            "inputs": [],
            "name": "renounceOwnership",
            "outputs": [],
            "stateMutability": "nonpayable",
            "type": "function"
        },
        {
            "inputs": [
                {
                    "internalType": "string",
                    "name": "oldID",
                    "type": "string"
                },
                {
                    "internalType": "uint256",
                    "name": "amount",
                    "type": "uint256"
                },
                {
                    "internalType": "string",
                    "name": "newID",
                    "type": "string"
                }
            ],
            "name": "splitAssetReference",
            "outputs": [],
            "stateMutability": "nonpayable",
            "type": "function"
        },
        {
            "inputs": [
                {
                    "internalType": "address",
                    "name": "newOwner",
                    "type": "address"
                }
            ],
            "name": "transferOwnership",
            "outputs": [],
            "stateMutability": "nonpayable",
            "type": "function"
        },
        {
            "inputs": [
                {
                    "internalType": "string",
                    "name": "id",
                    "type": "string"
                }
            ],
            "name": "unLockAssetReference",
            "outputs": [],
            "stateMutability": "nonpayable",
            "type": "function"
        }
    ],
    "bytecode": "608060405234801561001057600080fd5b5060405161129a38038061129a83398101604081905261002f916100ad565b6100383361005d565b600180546001600160a01b0319166001600160a01b03929092169190911790556100dd565b600080546001600160a01b038381166001600160a01b0319831681178455604051919092169283917f8be0079c531659141344cd1fd0a4f28419497f9722a3daafe3b4186f6b6457e09190a35050565b6000602082840312156100bf57600080fd5b81516001600160a01b03811681146100d657600080fd5b9392505050565b6111ae806100ec6000396000f3fe608060405234801561001057600080fd5b50600436106100cf5760003560e01c80638da5cb5b1161008c578063ade3222b11610066578063ade3222b14610193578063b1fa2580146101a6578063bc548275146101c6578063f2fde38b146101d957600080fd5b80638da5cb5b146101525780638ef452931461016d5780639dc29fac1461018057600080fd5b80631ae4eb68146100d457806340c10f19146100fc578063412832841461011157806363773a6c14610124578063663bcc9214610137578063715018a61461014a575b600080fd5b6100e76100e2366004610d7e565b6101ec565b60405190151581526020015b60405180910390f35b61010f61010a366004610ddc565b61021e565b005b61010f61011f366004610e06565b610336565b61010f610132366004610d7e565b610622565b61010f610145366004610e80565b6106ae565b61010f6107f3565b6000546040516001600160a01b0390911681526020016100f3565b61010f61017b366004610d7e565b610829565b61010f61018e366004610ddc565b61087a565b61010f6101a1366004610d7e565b610984565b6101b96101b4366004610d7e565b610aba565b6040516100f39190610f09565b6100e76101d4366004610d7e565b610bcd565b61010f6101e7366004610f71565b610bfc565b600060028383604051610200929190610f93565b9081526040519081900360200190206001015460ff16905092915050565b6000546001600160a01b031633146102515760405162461bcd60e51b815260040161024890610fa3565b60405180910390fd5b6001546040516001600160a01b03848116602483015260448201849052600092169060640160408051601f198184030181529181526020820180516001600160e01b03166340c10f1960e01b179052516102ab9190610fd8565b6000604051808303816000865af19150503d80600081146102e8576040519150601f19603f3d011682016040523d82523d6000602084013e6102ed565b606091505b50509050806103315760405162461bcd60e51b815260206004820152601060248201526f1b5a5b9d0818d85b1b0819985a5b195960821b6044820152606401610248565b505050565b6103408585610bcd565b6103975760405162461bcd60e51b815260206004820152602260248201527f546865206173736574207265666572656e636520646f6573206e6f74206578696044820152611cdd60f21b6064820152608401610248565b6103a185856101ec565b156103f85760405162461bcd60e51b815260206004820152602160248201527f546865206173736574207265666572656e6365206973206e6f74206c6f636b656044820152601960fa1b6064820152608401610248565b6002858560405161040a929190610f93565b90815260405190819003602001902060030154336001600160a01b03909116146104915760405162461bcd60e51b815260206004820152603260248201527f4f6e6c7920746865206f776e6572206f662074686520617373657420726566656044820152711c995b98d94818d85b881cdc1b1a5d081a5d60721b6064820152608401610248565b8181600284846040516104a5929190610f93565b908152604051908190036020019020916104c0919083611092565b5082600286866040516104d4929190610f93565b9081526020016040518091039020600201546104f09190611153565b60028383604051610502929190610f93565b90815260200160405180910390206002018190555060006002838360405161052b929190610f93565b908152604051908190036020018120600101805492151560ff199093169290921790915560029061055f9087908790610f93565b908152604051908190036020018120600301546001600160a01b03169060029061058c9085908590610f93565b908152602001604051809103902060030160006101000a8154816001600160a01b0302191690836001600160a01b031602179055506001600383836040516105d5929190610f93565b908152604051908190036020018120805492151560ff199093169290921790915583906002906106089088908890610f93565b908152604051908190036020019020600201555050505050565b6000546001600160a01b0316331461064c5760405162461bcd60e51b815260040161024890610fa3565b6106568282610bcd565b61065f57600080fd5b61066982826101ec565b1561067357600080fd5b600160028383604051610687929190610f93565b908152604051908190036020019020600101805491151560ff199092169190911790555050565b6000546001600160a01b031633146106d85760405162461bcd60e51b815260040161024890610fa3565b8383600286866040516106ec929190610f93565b90815260405190819003602001902091610707919083611092565b50816002858560405161071b929190610f93565b908152602001604051809103902060020181905550600060028585604051610744929190610f93565b908152604051908190036020018120600101805492151560ff1990931692909217909155819060029061077a9087908790610f93565b908152602001604051809103902060030160006101000a8154816001600160a01b0302191690836001600160a01b031602179055506001600385856040516107c3929190610f93565b908152604051908190036020019020805491151560ff199092169190911790556107ed818361021e565b50505050565b6000546001600160a01b0316331461081d5760405162461bcd60e51b815260040161024890610fa3565b6108276000610c97565b565b6000546001600160a01b031633146108535760405162461bcd60e51b815260040161024890610fa3565b61085d8282610bcd565b61086657600080fd5b600060028383604051610687929190610f93565b6000546001600160a01b031633146108a45760405162461bcd60e51b815260040161024890610fa3565b6001546040516001600160a01b03848116602483015260448201849052600092169060640160408051601f198184030181529181526020820180516001600160e01b0316632770a7eb60e21b179052516108fe9190610fd8565b6000604051808303816000865af19150503d806000811461093b576040519150601f19603f3d011682016040523d82523d6000602084013e610940565b606091505b50509050806103315760405162461bcd60e51b815260206004820152601060248201526f189d5c9b8818d85b1b0819985a5b195960821b6044820152606401610248565b6000546001600160a01b031633146109ae5760405162461bcd60e51b815260040161024890610fa3565b6109b88282610bcd565b6109c157600080fd5b6109cb82826101ec565b6109d457600080fd5b610a2d600283836040516109e9929190610f93565b908152604051908190036020018120600301546001600160a01b031690600290610a169086908690610f93565b90815260200160405180910390206002015461087a565b60028282604051610a3f929190610f93565b9081526040519081900360200190206000610a5a8282610ce7565b5060018101805460ff19169055600060028201819055600391820180546001600160a01b0319169055604051909190610a969085908590610f93565b908152604051908190036020019020805491151560ff199092169190911790555050565b604080516080810182526060808252600060208301819052828401819052908201529051600290610aee9085908590610f93565b9081526020016040518091039020604051806080016040529081600082018054610b179061100a565b80601f0160208091040260200160405190810160405280929190818152602001828054610b439061100a565b8015610b905780601f10610b6557610100808354040283529160200191610b90565b820191906000526020600020905b815481529060010190602001808311610b7357829003601f168201915b5050509183525050600182015460ff1615156020820152600282015460408201526003909101546001600160a01b03166060909101529392505050565b600060038383604051610be1929190610f93565b9081526040519081900360200190205460ff16905092915050565b6000546001600160a01b03163314610c265760405162461bcd60e51b815260040161024890610fa3565b6001600160a01b038116610c8b5760405162461bcd60e51b815260206004820152602660248201527f4f776e61626c653a206e6577206f776e657220697320746865207a65726f206160448201526564647265737360d01b6064820152608401610248565b610c9481610c97565b50565b600080546001600160a01b038381166001600160a01b0319831681178455604051919092169283917f8be0079c531659141344cd1fd0a4f28419497f9722a3daafe3b4186f6b6457e09190a35050565b508054610cf39061100a565b6000825580601f10610d03575050565b601f016020900490600052602060002090810190610c9491905b80821115610d315760008155600101610d1d565b5090565b60008083601f840112610d4757600080fd5b50813567ffffffffffffffff811115610d5f57600080fd5b602083019150836020828501011115610d7757600080fd5b9250929050565b60008060208385031215610d9157600080fd5b823567ffffffffffffffff811115610da857600080fd5b610db485828601610d35565b90969095509350505050565b80356001600160a01b0381168114610dd757600080fd5b919050565b60008060408385031215610def57600080fd5b610df883610dc0565b946020939093013593505050565b600080600080600060608688031215610e1e57600080fd5b853567ffffffffffffffff80821115610e3657600080fd5b610e4289838a01610d35565b9097509550602088013594506040880135915080821115610e6257600080fd5b50610e6f88828901610d35565b969995985093965092949392505050565b60008060008060608587031215610e9657600080fd5b843567ffffffffffffffff811115610ead57600080fd5b610eb987828801610d35565b90955093505060208501359150610ed260408601610dc0565b905092959194509250565b60005b83811015610ef8578181015183820152602001610ee0565b838111156107ed5750506000910152565b60208152600082516080602084015280518060a0850152610f318160c0860160208501610edd565b60208501511515604085810191909152850151606080860191909152909401516001600160a01b03166080840152505060c0601f909201601f1916010190565b600060208284031215610f8357600080fd5b610f8c82610dc0565b9392505050565b8183823760009101908152919050565b6020808252818101527f4f776e61626c653a2063616c6c6572206973206e6f7420746865206f776e6572604082015260600190565b60008251610fea818460208701610edd565b9190910192915050565b634e487b7160e01b600052604160045260246000fd5b600181811c9082168061101e57607f821691505b60208210810361103e57634e487b7160e01b600052602260045260246000fd5b50919050565b601f82111561033157600081815260208120601f850160051c8101602086101561106b5750805b601f850160051c820191505b8181101561108a57828155600101611077565b505050505050565b67ffffffffffffffff8311156110aa576110aa610ff4565b6110be836110b8835461100a565b83611044565b6000601f8411600181146110f257600085156110da5750838201355b600019600387901b1c1916600186901b17835561114c565b600083815260209020601f19861690835b828110156111235786850135825560209485019460019092019101611103565b50868210156111405760001960f88860031b161c19848701351681555b505060018560011b0183555b5050505050565b60008282101561117357634e487b7160e01b600052601160045260246000fd5b50039056fea26469706673582212200f2e547c68b2257f23e63039453135f3e4dfeb00a3b818615d8175a39390312564736f6c634300080f0033",
    "sourcePath": "/home/andre_9a/cactus/examples/cactus-example-cbdc-bridging-fabric-evm/src/solidity/asset-reference-contract/asset-reference-contract.sol",
    "compiler": {
        "name": "solc",
        "version": "0.8.15+commit.e14f2714"
    },
    "functionHashes": {
        "burn(address,uint256)": "9dc29fac",
        "createAssetReference(string,uint256,address)": "663bcc92",
        "deleteAssetReference(string)": "ade3222b",
        "getAssetReference(string)": "b1fa2580",
        "isAssetLocked(string)": "1ae4eb68",
        "isPresent(string)": "bc548275",
        "lockAssetReference(string)": "63773a6c",
        "mint(address,uint256)": "40c10f19",
        "owner()": "8da5cb5b",
        "renounceOwnership()": "715018a6",
        "splitAssetReference(string,uint256,string)": "41283284",
        "transferOwnership(address)": "f2fde38b",
        "unLockAssetReference(string)": "8ef45293"
    },
    "gasEstimates": {
        "creation": {
            "codeDepositCost": "905200",
            "executionCost": "infinite",
            "totalCost": "infinite"
        },
        "external": {
            "burn(address,uint256)": "infinite",
            "createAssetReference(string,uint256,address)": "infinite",
            "deleteAssetReference(string)": "infinite",
            "getAssetReference(string)": "infinite",
            "isAssetLocked(string)": "infinite",
            "isPresent(string)": "infinite",
            "lockAssetReference(string)": "infinite",
            "mint(address,uint256)": "infinite",
            "owner()": "2324",
            "renounceOwnership()": "28225",
            "splitAssetReference(string,uint256,string)": "infinite",
            "transferOwnership(address)": "28397",
            "unLockAssetReference(string)": "infinite"
        }
    }
}